1.00 0.99 ------- 0000000000401100 call_gmon_start                0000000000400D58 _init_proc                   prime signature matching                             3     3     3      7      7      7     3     3     3
1.00 0.99 ------- 000000000041853F sub_41853F_0                   0000000000415CCD sub_415CCD_5                 prime signature matching                             3     3     3     81     81     81     2     2     2
1.00 0.98 ------- 0000000000401090 _start                         0000000000401020 _start                       prime signature matching                             1     1     1     12     12     12     0     0     0
1.00 0.95 ------- 0000000000400ED0 _fgetc                         0000000000400E90 _fgetc                       MD index matching (flowgraph MD index, top down)     1     1     1      1      1      1     0     0     0
1.00 0.95 ------- 0000000000418F80 __libc_csu_fini                000000000041A6A0 __libc_csu_fini              prime signature matching                             1     1     1      1      1      1     0     0     0
1.00 0.95 ------- 0000000000418FB0 stat64                         000000000041A6B0 stat64                       address sequence                                     2     2     2      5      5      5     1     1     1
1.00 0.95 ------- 0000000000418FC0 lstat64                        000000000041A6C0 lstat64                      address sequence                                     2     2     2      5      5      5     1     1     1
1.00 0.92 ------- 0000000000400F10 ___libc_start_main             0000000000400EC0 ___libc_start_main           MD index matching (callGraph MD index, top down)     1     1     1      1      1      1     0     0     0
1.00 0.90 ------- 0000000000400E10 _free                          0000000000400DB0 _free                        call reference matching                              1     1     1      1      1      1     0     0     0
1.00 0.90 ------- 0000000000400E60 _ferror                        0000000000400E10 _ferror                      call reference matching                              1     1     1      1      1      1     0     0     0
1.00 0.90 ------- 0000000000400E80 _fread                         0000000000400E30 _fread                       call reference matching                              1     1     1      1      1      1     0     0     0
1.00 0.90 ------- 0000000000400E90 _fclose                        0000000000400E40 _fclose                      call reference matching                              1     1     1      1      1      1     0     0     0
1.00 0.90 ------- 0000000000400EB0 ___stack_chk_fail              0000000000400E70 ___stack_chk_fail            call reference matching                              1     1     1      1      1      1     0     0     0
1.00 0.90 ------- 0000000000400F00 _fputc                         0000000000400EB0 _fputc                       call reference matching                              1     1     1      1      1      1     0     0     0
1.00 0.90 ------- 0000000000400F50 _fprintf                       0000000000400EF0 _fprintf                     call reference matching                              1     1     1      1      1      1     0     0     0
1.00 0.90 ------- 0000000000400F60 _fopen64                       0000000000400F10 _fopen64                     call reference matching                              1     1     1      1      1      1     0     0     0
1.00 0.90 ------- 0000000000400F80 _malloc                        0000000000400F30 _malloc                      call reference matching                              1     1     1      1      1      1     0     0     0
1.00 0.90 ------- 0000000000400FA0 _ungetc                        0000000000400F50 _ungetc                      call reference matching                              1     1     1      1      1      1     0     0     0
1.00 0.90 ------- 0000000000400FB0 _fdopen                        0000000000400F60 _fdopen                      call reference matching                              1     1     1      1      1      1     0     0     0
1.00 0.90 ------- 0000000000401040 _exit                          0000000000400FD0 _exit                        call reference matching                              1     1     1      1      1      1     0     0     0
1.00 0.90 ------- 0000000000401050 _fwrite                        0000000000400FE0 _fwrite                      call reference matching                              1     1     1      1      1      1     0     0     0
1.00 0.90 ------- 0000000000401080 ___ctype_b_loc                 0000000000401010 ___ctype_b_loc               call reference matching                              1     1     1      1      1      1     0     0     0
1.00 0.62 ------- 0000000000400E00 _utime                         0000000000400D90 _getenv                      address sequence                                     1     1     1      1      1      1     0     0     0
1.00 0.62 ------- 0000000000400E20 ___errno_location              0000000000400DA0 _utime                       address sequence                                     1     1     1      1      1      1     0     0     0
1.00 0.62 ------- 0000000000400E30 _strncpy                       0000000000400DC0 ___errno_location            address sequence                                     1     1     1      1      1      1     0     0     0
1.00 0.62 ------- 0000000000400E40 _remove                        0000000000400DD0 _strncpy                     address sequence                                     1     1     1      1      1      1     0     0     0
1.00 0.62 ------- 0000000000400E50 _strcpy                        0000000000400DE0 _remove                      address sequence                                     1     1     1      1      1      1     0     0     0
1.00 0.62 ------- 0000000000400E70 _isatty                        0000000000400DF0 _strncmp                     address sequence                                     1     1     1      1      1      1     0     0     0
1.00 0.62 ------- 0000000000400EA0 ___xstat64                     0000000000400FA0 _perror                      address sequence                                     1     1     1      1      1      1     0     0     0
1.00 0.62 ------- 0000000000400EC0 _rewind                        0000000000400E00 _strcpy                      address sequence                                     1     1     1      1      1      1     0     0     0
1.00 0.62 ------- 0000000000400EE0 _close                         0000000000400E20 _isatty                      address sequence                                     1     1     1      1      1      1     0     0     0
1.00 0.62 ------- 0000000000400EF0 __mcleanup                     0000000000400FB0 ___lxstat64                  address sequence                                     1     1     1      1      1      1     0     0     0
1.00 0.62 ------- 0000000000400F20 _strcmp                        0000000000400E50 ___xstat64                   address sequence                                     1     1     1      1      1      1     0     0     0
1.00 0.62 ------- 0000000000400F30 _signal                        0000000000400E60 _strlen                      address sequence                                     1     1     1      1      1      1     0     0     0
1.00 0.62 ------- 0000000000400F40 ___monstartup                  0000000000400E80 _rewind                      address sequence                                     1     1     1      1      1      1     0     0     0
1.00 0.62 ------- 0000000000400F70 _fileno                        0000000000400EA0 _close                       address sequence                                     1     1     1      1      1      1     0     0     0
1.00 0.62 ------- 0000000000400F90 _fflush                        0000000000400ED0 _strcmp                      address sequence                                     1     1     1      1      1      1     0     0     0
1.00 0.62 ------- 0000000000400FC0 _fchmod                        0000000000400EE0 _signal                      address sequence                                     1     1     1      1      1      1     0     0     0
1.00 0.62 ------- 0000000000400FE0 _open64                        0000000000400F20 _fileno                      address sequence                                     1     1     1      1      1      1     0     0     0
1.00 0.62 ------- 0000000000400FF0 _fchown                        0000000000400F40 _fflush                      address sequence                                     1     1     1      1      1      1     0     0     0
1.00 0.62 ------- 0000000000401000 _perror                        0000000000400F70 _fchmod                      address sequence                                     1     1     1      1      1      1     0     0     0
1.00 0.62 ------- 0000000000401010 ___cxa_atexit                  0000000000400FC0 _strcat                      address sequence                                     1     1     1      1      1      1     0     0     0
1.00 0.62 ------- 0000000000401020 ___lxstat64                    0000000000401000 _strstr                      address sequence                                     1     1     1      1      1      1     0     0     0
1.00 0.62 ------- 0000000000401030 _strcat                        0000000000400F80 _open64                      address sequence                                     1     1     1      1      1      1     0     0     0
1.00 0.62 ------- 0000000000401060 _strerror                      0000000000400F90 _fchown                      address sequence                                     1     1     1      1      1      1     0     0     0
1.00 0.62 ------- 0000000000401070 _strstr                        0000000000400FF0 _strerror                    address sequence                                     1     1     1      1      1      1     0     0     0
0.99 0.99 -I--E-- 000000000040BA36 BZ2_bzReadOpen                 0000000000408B21 BZ2_bzReadOpen               edges flowgraph MD index                            46    46    46    158    159    158    71    71    71
0.99 0.99 -I--E-- 000000000040B17E BZ2_bzWriteOpen                0000000000408272 BZ2_bzWriteOpen              edges flowgraph MD index                            42    42    42    129    130    129    64    64    64
0.99 0.99 -I--E-- 00000000004092A4 BZ2_bzDecompressInit           000000000040638A BZ2_bzDecompressInit         edges flowgraph MD index                            18    18    18     92     93     92    26    26    26
0.99 0.99 -I--E-- 0000000000409194 BZ2_bzCompressEnd              000000000040627F BZ2_bzCompressEnd            edges flowgraph MD index                            14    14    14     74     75     74    19    19    19
0.99 0.99 -I--E-- 000000000040B017 BZ2_bzDecompressEnd            0000000000408115 BZ2_bzDecompressEnd          edges flowgraph MD index                            14    14    14     74     75     74    19    19    19
0.99 0.99 -I--E-- 000000000040C8A9 BZ2_bzread                     0000000000409980 BZ2_bzread                   edges flowgraph MD index                             7     7     7     30     31     30     9     9     9
0.99 0.99 -I--E-- 00000000004128B7 BZ2_decompress                 000000000040FF5E BZ2_decompress               edges flowgraph MD index                             5     5     5    146    147    146     5     5     5
0.99 0.99 -I--E-- 000000000040C4DC bzopen_or_bzdopen              0000000000409596 bzopen_or_bzdopen            edges flowgraph MD index                            43    43    43    171    180    176    60    60    60
0.99 0.99 -I--E-- 000000000040BDB9 BZ2_bzRead                     0000000000408E98 BZ2_bzRead                   edges flowgraph MD index                            70    70    70    205    211    208   106   106   106
0.99 0.99 -I--E-- 000000000040B139 myfeof_0                       0000000000408232 myfeof_0                     edges flowgraph MD index                             4     4     4     20     21     20     4     4     4
0.99 0.99 -I--E-- 0000000000408665 add_pair_to_block              0000000000405767 add_pair_to_block            MD index matching (flowgraph MD index, top down)    11    11    11    196    200    198    14    14    14
0.98 0.98 -I--E-- 000000000040ADB7 BZ2_bzDecompress               0000000000407EB7 BZ2_bzDecompress             edges flowgraph MD index                            35    35    35    150    154    154    51    51    51
0.98 0.98 -I--E-- 000000000040CCB3 makeMaps_e                     0000000000409D34 makeMaps_e                   edges flowgraph MD index                             6     6     6     29     32     30     7     7     7
0.98 0.99 GI-JELC 000000000040D1BC sendMTFValues                  000000000040A253 sendMTFValues                call reference matching                            187   188   187   4910   5149   5404   254   258   256
0.98 0.98 GI--E-- 0000000000408300 BZ2_bzCompressInit             000000000040540C BZ2_bzCompressInit           call reference matching                             30    30    30    212    219    214    45    46    45
0.98 0.98 -I--E-- 0000000000412838 makeMaps_d                     000000000040FEE8 makeMaps_d                   MD index matching (flowgraph MD index, top down)     6     6     6     29     32     30     7     7     7
0.97 0.98 GI--E-- 0000000000412520 BZ2_compressBlock              000000000040FBD9 BZ2_compressBlock            call reference matching                             15    15    15    190    194    192    20    21    20
0.97 0.97 -I-JE-- 000000000040C387 BZ2_bzBuffToBuffDecompress     0000000000409449 BZ2_bzBuffToBuffDecompress   edges flowgraph MD index                            18    18    18     85     89     89    28    28    28
0.97 0.98 -I-JE-- 000000000040C23A BZ2_bzBuffToBuffCompress       0000000000409301 BZ2_bzBuffToBuffCompress     edges flowgraph MD index                            20    20    20     79     89     88    32    32    32
0.96 0.96 -I--E-- 0000000000408148 BZ2_bz__AssertH__fail          00000000004051AF BZ2_bz__AssertH__fail        edges flowgraph MD index                             3     3     3     22     25     22     3     3     3
0.96 0.98 GI--E-- 0000000000403217 mainSort                       00000000004188CC mainSort                     string references                                   94    95    94    788    896    947   128   131   130
0.95 0.96 -I--E-- 000000000040CA9F bsFinishWrite                  0000000000409B46 bsFinishWrite                call reference matching                              4     4     4     34     38     36     4     4     4
0.95 0.97 -I--E-- 000000000040BCDB BZ2_bzReadClose                0000000000408DC1 BZ2_bzReadClose              call reference matching                             20    20    20     53     57     54    26    28    28
0.94 0.95 -I--E-- 000000000040CB26 bsW                            0000000000409BC4 bsW                          call reference matching                              4     4     4     58     66     59     4     4     4
0.94 0.95 -I-JE-- 000000000040CD26 generateMTFValues              0000000000409D9E generateMTFValues            edges flowgraph MD index                            36    36    36    227    241    249    47    47    47
0.94 0.99 GI--E-- 0000000000408F62 BZ2_bzCompress                 0000000000406052 BZ2_bzCompress               call reference matching                             42    46    42    129    154    129    58    68    58
0.92 0.97 GI-JEL- 0000000000409438 unRLE_obuf_to_output_FAST      0000000000406519 unRLE_obuf_to_output_FAST    call reference matching                             88    93    92    669    774    773   119   137   136
0.91 0.94 GI--E-C 000000000040B6B8 BZ2_bzWriteClose64             00000000004087B5 BZ2_bzWriteClose64           loop count matching                                 68    69    68    211    224    216    95   104   103
0.91 0.92 GI-JE-- 00000000004018DA fallbackSort                   00000000004168E3 fallbackSort                 string references                                   86    87    86    474    545    550   118   120   119
0.86 0.95 GI-JE-- 0000000000418734 BZ2_hbMakeCodeLengths          0000000000419C4D BZ2_hbMakeCodeLengths        call reference matching                             49    49    54    275    347    352    52    67    72
0.85 0.95 GI-JE-- 0000000000408DC0 handle_compress                0000000000405EC1 handle_compress              call reference matching                             22    26    22     84    121     86    29    40    29
0.83 0.86 -I--E-C 0000000000418EF0 __libc_csu_init                000000000041A630 __libc_csu_init              instruction count                                    4     4     4     19     34     34     5     5     5
0.77 0.81 GI-JEL- 0000000000401359 fallbackQSort3                 00000000004160C2 fallbackQSort3               call reference matching                             38    40    40    319    419    432    49    54    53
0.70 0.97 -I--E-- 000000000040C4CC BZ2_bzlibVersion               000000000040958B BZ2_bzlibVersion             MD index matching (flowgraph MD index, top down)     1     1     1      5      6      5     0     0     0
0.70 0.85 GI-JE-C 000000000040511F testStream                     0000000000401961 uncompressStream             call sequence matching(sequence)                    29    36    33    110    161    151    23    46    43
0.67 0.70 -I--E-- 000000000040C116 BZ2_bzReadGetUnused            00000000004091EB BZ2_bzReadGetUnused          call reference matching                             25    25    25     65     72     67    33    36    36
0.65 0.90 -I--E-- 000000000040CC86 bsPutUChar                     0000000000409D0C bsPutUChar                   call reference matching                              1     1     1     13     14     13     0     0     0
0.65 0.90 -I--E-- 000000000040CC0C bsPutUInt32                    0000000000409C97 bsPutUInt32                  call reference matching                              1     1     1     33     35     34     0     0     0
0.65 0.95 -I--E-- 000000000040829F init_RL                        0000000000405373 init_RL                      MD index matching (flowgraph MD index, top down)     1     1     1      3     11      4     0     0     0
0.64 0.95 -I--E-- 0000000000400FD0 _mcount                        0000000000407003 BZ2_indexIntoF               MD index matching (flowgraph MD index, top down)     1     1     1      1      1      5     0     0     0
0.64 0.90 -I--E-- 000000000040CA70 BZ2_bsInitWrite                0000000000409B20 BZ2_bsInitWrite              call reference matching                              1     1     1      8     11      9     0     0     0
0.63 0.95 -I--E-- 00000000004081B3 bz_config_ok                   000000000040520F bz_config_ok                 MD index matching (flowgraph MD index, top down)     1     1     1      5      6     41     0     0     0
0.43 0.62 -I--E-- 0000000000405D83 containsDubiousChars           0000000000402E33 mapSuffix                    address sequence                                     1     1     1      5      8      8     0     0     0
0.43 0.62 -I--E-- 00000000004071C7 license                        0000000000401356 uInt64_toAscii               address sequence                                     1     1     1      8     13     13     0     0     0
0.43 0.62 -I--E-- 0000000000400DF0 _getenv                        00000000004022F8 cadvise                      address sequence                                     1     1     1      1      1      3     0     0     0
0.43 0.62 -I--E-- 000000000040C94E BZ2_bzflush                    0000000000417DC3 mmed3                        address sequence                                     1     1     1      4      8      8     0     0     0
0.42 0.62 -I--E-- 00000000004057A2 panic                          000000000040143B myfeof                       address sequence                                     1     1     1      4     15      5     0     0     0
0.42 0.62 -I--E-- 00000000004071F6 usage                          00000000004025C0 panic                        address sequence                                     1     1     1      4     15      5     0     0     0
0.42 0.62 -I--E-- 00000000004081C3 default_bzalloc                0000000000402BC9 countHardLinks               address sequence                                     1     1     1      4     16      5     0     0     0
0.42 0.62 -I--E-- 000000000040B66A BZ2_bzWriteClose               000000000040110D uInt64_from_UInt32s          address sequence                                     1     1     1      5     21      6     0     0     0
0.42 0.62 -I--E-- 0000000000407298 mkCell                         0000000000401254 uInt64_isZero                address sequence                                     1     1     1      3     14      4     0     0     0
0.42 0.62 -I--E-- 000000000040C84A BZ2_bzopen                     00000000004012B2 uInt64_qrm10                 address sequence                                     1     1     1      3     14      4     0     0     0
0.42 0.62 -I--E-- 000000000040C87B BZ2_bzdopen                    00000000004022B7 setExit                      address sequence                                     1     1     1      3     14      4     0     0     0
0.42 0.62 -I--E-- 0000000000404424 uInt64_from_UInt32s            0000000000408748 BZ2_bzWriteClose             address sequence                                     1     1     1      8     47      9     0     0     0
0.42 0.62 -I--E-- 0000000000405880 ioError                        00000000004027BE mySIGSEGVorSIGBUScatcher     address sequence                                     1     1     1      3     16      5     0     0     0
0.42 0.62 -I--E-- 00000000004059CE configError                    0000000000402A53 fileExists                   address sequence                                     1     1     1      3     16      5     0     0     0
0.42 0.62 -I--E-- 0000000000405993 outOfMemory                    00000000004026FB ioError                      address sequence                                     1     1     1      2     13      3     0     0     0
0.42 0.62 -I--E-- 00000000004057E6 crcError                       00000000004028C0 configError                  address sequence                                     1     1     1      2     14      3     0     0     0
0.42 0.62 -I--E-- 00000000004058CA mySignalCatcher                00000000004041E9 license                      address sequence                                     1     1     1      2     14      3     0     0     0
0.42 0.62 -I--E-- 000000000040722E redundant                      000000000041A6D0 _term_proc                   address sequence                                     1     1     1      2     14      3     0     0     0
0.41 0.62 -I--E-- 0000000000400DC0 _init_proc                     0000000000409A1B BZ2_bzflush                  address sequence                                     1     1     1      1      6      6     0     0     0
0.40 0.62 -I--E-- 0000000000419008 _term_proc                     00000000004052D8 prepare_new_block            address sequence                                     1     1     1      0      4      4     0     0     0
0.39 0.70 GI-JE-- 000000000040559F cleanUpAndFail                 0000000000402ED4 compress                     call sequence matching(sequence)                    12    16    50     37    109    226     6    25    58
0.37 0.56 GI--EL- 0000000000404609 uInt64_toAscii                 000000000040194B sub_40194B_1                 call sequence matching(sequence)                     3     8     3      5     59      6     2     9     2
0.35 0.80 GI--ELC 0000000000404BA8 uncompressStream               000000000040149F compressStream               call sequence matching(sequence)                     7    64    15     28    267     69     4    89    17
0.33 0.75 GI--ELC 0000000000402A8D mainQSort3                     0000000000417E3D mainQSort3                   call reference matching                              5    42     8     30    535    110     2    58     8
0.31 0.78 G---E-- 00000000004010C0 __gmon_start__                 0000000000400F00 ___gmon_start__              call reference matching                              1     8     1      1     22      1     0     8     0
0.27 0.62 GI--E-- 0000000000408947 copy_input_until_stop          0000000000405DF0 copy_output_until_stop       loop count matching                                  9    37     9     23    269     64     4    54    11
0.24 0.38 GI-JE-- 0000000000404715 compressStream                 00000000004084A6 BZ2_bzWrite                  call sequence matching(sequence)                    23    47    53     44    254    164    14    64    79
0.20 0.69 GI--EL- 0000000000405EFB compress                       00000000004099DE BZ2_bzwrite                  call sequence matching(exact)                        4    79     4     14    434     20     3   118     4
0.19 0.44 GI--E-- 00000000004082C8 isempty_RL                     00000000004053B7 isempty_RL                   call reference matching                              1     5     1      3     18      4     0     6     0
0.18 0.44 GI--EL- 0000000000418C68 BZ2_hbAssignCodes              000000000041A30F BZ2_hbAssignCodes            call reference matching                              1     9     1      8     40      8     0    11     0
0.17 0.33 GI--EL- 000000000040B3B7 BZ2_bzWrite                    0000000000401ED7 testStream                   call sequence matching(sequence)                    15    53    25     20    172    123     7    79    31
0.13 0.44 GI--EL- 00000000004011B4 fallbackSimpleSort             0000000000415EB6 fallbackSimpleSort           call reference matching                              1    19     1      6    136      7     0    26     0
0.12 0.44 GI--EL- 00000000004041F7 BZ2_blockSort                  0000000000419A04 BZ2_blockSort                call reference matching                              1    25     1     22    159     23     0    34     0
0.12 0.44 GI--EL- 0000000000402728 mainSimpleSort                 0000000000417A45 mainSimpleSort               call reference matching                              1    35     1      9    257     10     0    47     0
0.09 0.10 -I--E-- 0000000000405AB4 copyFileName                   0000000000401EB9 sub_401EB9_2                 address sequence                                     3     3     3      4     41      8     2     2     2
0.06 0.10 GI--E-- 0000000000405B58 fileExists                     0000000000409A2A BZ2_bzclose                  call sequence matching(sequence)                     3     3     7     11     22     36     2     3     9
0.04 0.12 GI--EL- 000000000040890E flush_RL                       0000000000405A5F copy_input_until_stop        call sequence matching(exact)                        3     3    37     12     17    264     0     3    54
0.03 0.09 GI--EL- 00000000004072D0 snocString                     0000000000403670 uncompress                   call sequence matching(exact)                        2     7    60      9     54    246     0     8    73
0.03 0.07 GI-JEL- 0000000000409F73 unRLE_obuf_to_output_SMALL     000000000040708A unRLE_obuf_to_output_SMALL   call reference matching                             15    86    28    101   1025    228    13   128    38
0.02 0.03 GI--E-- 0000000000405D39 applySavedFileAttrToOutputFile 00000000004045AB main                         call sequence matching(exact)                        1     3     1     10     22     31     0     2     0
0.01 0.05 GI--EL- 00000000004074E4 main                           0000000000403E7B testf                        call sequence matching(exact)                        3   149     4      9    698     15     1   215     4
0.01 0.02 GI--E-- 0000000000405506 setExit                        00000000004029AB copyFileName                 call sequence matching(sequence)                     1     3     1      5     12      6     0     3     0