1.00 0.99 ------- 0000000000400860 _init_proc              0000000000400C10 call_gmon_start           prime signature matching                             3     3     3      7      7      7     3     3     3
1.00 0.98 ------- 0000000000400AB8 _start                  0000000000400BA0 _start                    prime signature matching                             1     1     1     12     12     12     0     0     0
1.00 0.95 ------- 0000000000402D70 __libc_csu_fini         0000000000403870 __libc_csu_fini           prime signature matching                             1     1     1      1      1      1     0     0     0
1.00 0.92 ------- 00000000004008F0 ___libc_start_main      00000000004009D0 ___libc_start_main        MD index matching (callGraph MD index, top down)     1     1     1      1      1      1     0     0     0
1.00 0.62 ------- 0000000000400890 _free                   0000000000400980 _fclose                   address sequence                                     1     1     1      1      1      1     0     0     0
1.00 0.62 ------- 00000000004008A0 _putchar                0000000000400990 ___stack_chk_fail         address sequence                                     1     1     1      1      1      1     0     0     0
1.00 0.62 ------- 00000000004008B0 _puts                   00000000004009A0 _printf                   address sequence                                     1     1     1      1      1      1     0     0     0
1.00 0.62 ------- 00000000004008C0 _fclose                 00000000004009B0 ___assert_fail            address sequence                                     1     1     1      1      1      1     0     0     0
1.00 0.62 ------- 00000000004008D0 ___stack_chk_fail       00000000004009E0 _fgets                    address sequence                                     1     1     1      1      1      1     0     0     0
1.00 0.62 ------- 00000000004008E0 ___assert_fail          00000000004009F0 _calloc                   address sequence                                     1     1     1      1      1      1     0     0     0
1.00 0.62 ------- 0000000000400900 _fgets                  0000000000400A00 ___monstartup             address sequence                                     1     1     1      1      1      1     0     0     0
1.00 0.62 ------- 0000000000400910 _calloc                 0000000000400A10 _fprintf                  address sequence                                     1     1     1      1      1      1     0     0     0
1.00 0.62 ------- 0000000000400930 _fflush                 00000000004009C0 __mcleanup                address sequence                                     1     1     1      1      1      1     0     0     0
1.00 0.62 ------- 0000000000400940 ___isoc99_sscanf        0000000000400A20 _fflush                   address sequence                                     1     1     1      1      1      1     0     0     0
1.00 0.62 ------- 0000000000400950 _realloc                0000000000400A70 ___cxa_atexit             address sequence                                     1     1     1      1      1      1     0     0     0
1.00 0.62 ------- 0000000000400960 ___strcpy_chk           0000000000400A30 ___isoc99_sscanf          address sequence                                     1     1     1      1      1      1     0     0     0
1.00 0.62 ------- 0000000000400970 ___printf_chk           0000000000400A40 _realloc                  address sequence                                     1     1     1      1      1      1     0     0     0
1.00 0.62 ------- 0000000000400980 _fopen                  0000000000400A50 _mcount                   address sequence                                     1     1     1      1      1      1     0     0     0
1.00 0.62 ------- 0000000000400990 _exit                   0000000000400A60 _fopen                    address sequence                                     1     1     1      1      1      1     0     0     0
1.00 0.62 ------- 00000000004009A0 _fwrite                 0000000000400A80 _exit                     address sequence                                     1     1     1      1      1      1     0     0     0
1.00 0.62 ------- 00000000004009B0 ___fprintf_chk          0000000000400A90 _fwrite                   address sequence                                     1     1     1      1      1      1     0     0     0
0.99 0.99 -I--E-- 0000000000402050 primal_iminus           0000000000402AA0 primal_iminus             MD index matching (flowgraph MD index, top down)    21    21    21     62     62     66    32    32    32
0.93 0.98 GI--E-- 00000000004023E0 primal_start_artificial 0000000000402E40 primal_start_artificial   call reference matching                             10    11    10     61     64     67    13    15    14
0.91 0.98 GI-JE-- 0000000000402190 primal_net_simplex      0000000000402BF0 primal_net_simplex        loop count matching                                 14    15    16    122    133    135    18    21    22
0.84 0.89 GI-JE-C 0000000000402540 read_min                0000000000402FA0 read_min                  string references                                   34    36    35    247    282    285    45    53    52
0.83 0.86 -I--E-C 0000000000402D00 __libc_csu_init         00000000004037E0 __libc_csu_init           instruction count                                    4     4     4     19     34     34     5     5     5
0.82 0.93 GI-JE-- 0000000000401650 flow_cost               0000000000401AE0 flow_cost                 loop count matching                                 18    20    18     46     64     65    21    30    28
0.81 0.88 GI-JE-C 0000000000401B60 write_circulations      0000000000401F40 write_circulations        string references                                   17    17    18     80     89    101    20    24    26
0.79 0.97 GI-JE-- 0000000000402AA0 update_tree             0000000000403560 update_tree               loop count matching                                 40    50    48    129    164    176    38    75    73
0.65 0.82 GI--E-C 00000000004009C0 main                    0000000000400AA0 main                      string references                                    5     7     7     45     61     61     4     6     9
0.49 0.87 GI--ELC 0000000000401360 global_opt              0000000000401590 global_opt                call reference matching                             10    10    28     56     83    229     7    13    46
0.49 0.50 -I-JE-- 0000000000401CC0 bea_is_dual_infeasible  00000000004020B0 bea_is_dual_infeasible    MD index matching (flowgraph MD index, top down)     5     5     5     10     13     19     4     4     4
0.42 0.62 -I--E-- 0000000000401AB0 getfree                 00000000004038D8 _term_proc                instruction count                                    1     1     1      1      4      4     0     0     0
0.39 0.43 GI--E-- 0000000000402140 primal_update_flow      0000000000402BA0 primal_update_flow        call reference matching                              8     8     8     18     24     27     8    10    11
0.31 0.78 G---E-- 0000000000400920 ___gmon_start__         0000000000400BD0 __gmon_start__            call reference matching                              1     1     8      1      1     22     0     0     8
0.17 0.44 GI--E-- 00000000004014D0 refresh_neighbour_lists 00000000004019B0 refresh_neighbour_lists   call reference matching                              1     1     7      1      2     31     0     0    10
0.13 0.44 GI--EL- 0000000000401210 suspend_impl            0000000000401460 suspend_impl              call reference matching                              1     1    17      2      5     73     0     0    24
0.11 0.33 GI--EL- 0000000000400EA0 price_out_impl          0000000000400F80 price_out_impl            call reference matching                              4     4    55      9     22    299     3     3    86
0.01 0.03 GI--EL- 0000000000401DD0 primal_bea_mpp          0000000000402800 primal_bea_mpp            call sequence matching(exact)                        1     1    34      7      8    161     0     0    53
0.01 0.01 GI--EL- 0000000000401570 refresh_potential       0000000000401CC0 primal_feasible           call sequence matching(sequence)                     2     9    11      2     55     86     1     8    15
0.01 0.02 GI--EL- 0000000000401870 primal_feasible         0000000000401DF0 dual_feasible             call sequence matching(sequence)                     1     1    13      3     12     50     0     0    19
0.01 0.02 GI--EL- 00000000004019D0 dual_feasible           0000000000401A30 refresh_potential         call sequence matching(sequence)                     1     1    16      1      5     53     0     0    24