1.00 0.99 ------- 0000000000414150 stat                                  00000000004145F0 stat                                    edges flowgraph MD index                              2     2     2      5      5      5     1     1     1
1.00 0.99 ------- 0000000000402670 call_gmon_start                       0000000000401E60 _init_proc                              prime signature matching                              3     3     3      7      7      7     3     3     3
1.00 0.99 ------- 0000000000414160 stat64                                0000000000414600 stat64                                  MD index matching (flowgraph MD index, top down)      2     2     2      5      5      5     1     1     1
1.00 0.98 ------- 0000000000402600 _start                                00000000004025A0 _start                                  prime signature matching                              1     1     1     12     12     12     0     0     0
1.00 0.95 ------- 0000000000401FF0 _fcntl                                0000000000401FB0 _fcntl                                  MD index matching (flowgraph MD index, top down)      1     1     1      1      1      1     0     0     0
1.00 0.95 ------- 0000000000402120 _fputs                                00000000004022F0 _time                                   prime signature matching                              1     1     1      1      1      1     0     0     0
1.00 0.95 ------- 0000000000402320 ___sysv_signal                        00000000004022E0 ___sysv_signal                          MD index matching (flowgraph MD index, bottom up)     1     1     1      1      1      1     0     0     0
1.00 0.95 ------- 0000000000402330 _time                                 0000000000402110 _memset                                 prime signature matching                              1     1     1      1      1      1     0     0     0
1.00 0.95 ------- 0000000000402380 _tolower                              0000000000402340 _tolower                                MD index matching (flowgraph MD index, top down)      1     1     1      1      1      1     0     0     0
1.00 0.95 ------- 00000000004023F0 _realloc                              00000000004023B0 _realloc                                MD index matching (flowgraph MD index, top down)      1     1     1      1      1      1     0     0     0
1.00 0.95 ------- 0000000000402570 _fwrite                               0000000000402510 _fwrite                                 prime signature matching                              1     1     1      1      1      1     0     0     0
1.00 0.95 ------- 00000000004025D0 _fork                                 0000000000402570 _fork                                   MD index matching (flowgraph MD index, bottom up)     1     1     1      1      1      1     0     0     0
1.00 0.95 ------- 00000000004025F0 _socket                               0000000000402590 _socket                                 MD index matching (flowgraph MD index, top down)      1     1     1      1      1      1     0     0     0
1.00 0.95 ------- 0000000000414120 __libc_csu_fini                       00000000004145E0 __libc_csu_fini                         prime signature matching                              1     1     1      1      1      1     0     0     0
1.00 0.92 ------- 0000000000401FA0 _puts                                 0000000000402550 _strdup                                 MD index matching (callGraph MD index, top down)      1     1     1      1      1      1     0     0     0
1.00 0.92 ------- 0000000000401FB0 _qsort                                0000000000402020 _rmdir                                  MD index matching (callGraph MD index, bottom up)     1     1     1      1      1      1     0     0     0
1.00 0.92 ------- 0000000000402010 _inet_ntoa                            00000000004021D0 _read                                   MD index matching (callGraph MD index, top down)      1     1     1      1      1      1     0     0     0
1.00 0.92 ------- 0000000000402220 ___libc_start_main                    00000000004021E0 ___libc_start_main                      MD index matching (callGraph MD index, top down)      1     1     1      1      1      1     0     0     0
1.00 0.90 ------- 0000000000401EF0 _free                                 0000000000401EB0 _free                                   call reference matching                               1     1     1      1      1      1     0     0     0
1.00 0.90 ------- 0000000000401F00 _recv                                 0000000000401EC0 _recv                                   call reference matching                               1     1     1      1      1      1     0     0     0
1.00 0.90 ------- 0000000000401F40 ___errno_location                     0000000000401F00 ___errno_location                       call reference matching                               1     1     1      1      1      1     0     0     0
1.00 0.90 ------- 0000000000401F70 _strcpy                               0000000000401F30 _strcpy                                 call reference matching                               1     1     1      1      1      1     0     0     0
1.00 0.90 ------- 0000000000401FD0 _vsnprintf                            0000000000401F90 _vsnprintf                              call reference matching                               1     1     1      1      1      1     0     0     0
1.00 0.90 ------- 0000000000401FE0 _setsockopt                           0000000000401FA0 _setsockopt                             call reference matching                               1     1     1      1      1      1     0     0     0
1.00 0.90 ------- 0000000000402020 _getpeername                          0000000000401FE0 _getpeername                            call reference matching                               1     1     1      1      1      1     0     0     0
1.00 0.90 ------- 0000000000402030 _fclose                               0000000000401FF0 _fclose                                 call reference matching                               1     1     1      1      1      1     0     0     0
1.00 0.90 ------- 0000000000402070 _chdir                                0000000000402040 _chdir                                  call reference matching                               1     1     1      1      1      1     0     0     0
1.00 0.90 ------- 0000000000402080 ___stack_chk_fail                     0000000000402050 ___stack_chk_fail                       call reference matching                               1     1     1      1      1      1     0     0     0
1.00 0.90 ------- 00000000004020A0 _dup2                                 0000000000402070 _dup2                                   call reference matching                               1     1     1      1      1      1     0     0     0
1.00 0.90 ------- 00000000004020B0 _send                                 0000000000402080 _send                                   call reference matching                               1     1     1      1      1      1     0     0     0
1.00 0.90 ------- 00000000004020D0 _printf                               00000000004020A0 _printf                                 call reference matching                               1     1     1      1      1      1     0     0     0
1.00 0.90 ------- 00000000004020F0 _snprintf                             00000000004020C0 _snprintf                               call reference matching                               1     1     1      1      1      1     0     0     0
1.00 0.90 ------- 0000000000402100 _strrchr                              00000000004020D0 _strrchr                                call reference matching                               1     1     1      1      1      1     0     0     0
1.00 0.90 ------- 0000000000402110 ___assert_fail                        00000000004020E0 ___assert_fail                          call reference matching                               1     1     1      1      1      1     0     0     0
1.00 0.90 ------- 0000000000402150 _getcwd                               0000000000402120 _getcwd                                 call reference matching                               1     1     1      1      1      1     0     0     0
1.00 0.90 ------- 0000000000402170 _strncat                              0000000000402140 _strncat                                call reference matching                               1     1     1      1      1      1     0     0     0
1.00 0.90 ------- 0000000000402190 _close                                0000000000402160 _close                                  call reference matching                               1     1     1      1      1      1     0     0     0
1.00 0.90 ------- 0000000000402230 _memcmp                               00000000004021F0 _memcmp                                 call reference matching                               1     1     1      1      1      1     0     0     0
1.00 0.90 ------- 0000000000402250 _fgets                                0000000000402210 _fgets                                  call reference matching                               1     1     1      1      1      1     0     0     0
1.00 0.90 ------- 0000000000402280 _strcmp                               0000000000402240 _strcmp                                 call reference matching                               1     1     1      1      1      1     0     0     0
1.00 0.90 ------- 0000000000402290 _signal                               0000000000402250 _signal                                 call reference matching                               1     1     1      1      1      1     0     0     0
1.00 0.90 ------- 00000000004022E0 _fprintf                              0000000000402290 _fprintf                                call reference matching                               1     1     1      1      1      1     0     0     0
1.00 0.90 ------- 00000000004022F0 _fopen64                              00000000004022B0 _fopen64                                call reference matching                               1     1     1      1      1      1     0     0     0
1.00 0.90 ------- 0000000000402300 _realpath                             00000000004022C0 _realpath                               call reference matching                               1     1     1      1      1      1     0     0     0
1.00 0.90 ------- 0000000000402310 _memcpy                               00000000004022D0 _memcpy                                 call reference matching                               1     1     1      1      1      1     0     0     0
1.00 0.90 ------- 00000000004023A0 _malloc                               0000000000402360 _malloc                                 call reference matching                               1     1     1      1      1      1     0     0     0
1.00 0.90 ------- 00000000004023C0 ___isoc99_sscanf                      0000000000402380 ___isoc99_sscanf                        call reference matching                               1     1     1      1      1      1     0     0     0
1.00 0.90 ------- 00000000004023D0 _listen                               0000000000402390 _listen                                 call reference matching                               1     1     1      1      1      1     0     0     0
1.00 0.90 ------- 0000000000402420 _mcount                               0000000000402030 _strlen                                 call reference matching                               1     1     1      1      1      1     0     0     0
1.00 0.90 ------- 0000000000402430 _bind                                 00000000004023E0 _bind                                   call reference matching                               1     1     1      1      1      1     0     0     0
1.00 0.90 ------- 0000000000402490 _waitpid                              0000000000402440 _waitpid                                call reference matching                               1     1     1      1      1      1     0     0     0
1.00 0.90 ------- 00000000004024B0 _fopen                                0000000000402460 _fopen                                  call reference matching                               1     1     1      1      1      1     0     0     0
1.00 0.90 ------- 0000000000402500 _getsockname                          00000000004024B0 _getsockname                            call reference matching                               1     1     1      1      1      1     0     0     0
1.00 0.90 ------- 0000000000402540 _exit                                 00000000004024E0 _exit                                   call reference matching                               1     1     1      1      1      1     0     0     0
1.00 0.90 ------- 0000000000402560 _execle                               0000000000402500 _execle                                 call reference matching                               1     1     1      1      1      1     0     0     0
1.00 0.90 ------- 00000000004025C0 _strerror                             0000000000402560 _strerror                               call reference matching                               1     1     1      1      1      1     0     0     0
1.00 0.90 ------- 00000000004025E0 ___ctype_b_loc                        0000000000402580 ___ctype_b_loc                          call reference matching                               1     1     1      1      1      1     0     0     0
1.00 0.62 ------- 0000000000401F20 _funlockfile                          0000000000401E90 _inet_ntop                              address sequence                                      1     1     1      1      1      1     0     0     0
1.00 0.62 ------- 0000000000401F30 _localtime                            0000000000401EA0 _getenv                                 address sequence                                      1     1     1      1      1      1     0     0     0
1.00 0.62 ------- 0000000000401F50 _strncpy                              0000000000401ED0 _pthread_create                         address sequence                                      1     1     1      1      1      1     0     0     0
1.00 0.62 ------- 0000000000401F60 _remove                               0000000000401EE0 _funlockfile                            address sequence                                      1     1     1      1      1      1     0     0     0
1.00 0.62 ------- 0000000000401F80 _mkdir                                0000000000401EF0 _localtime                              address sequence                                      1     1     1      1      1      1     0     0     0
1.00 0.62 ------- 0000000000401F90 _toupper                              0000000000401F10 _strncpy                                address sequence                                      1     1     1      1      1      1     0     0     0
1.00 0.62 ------- 0000000000401FC0 _fread                                0000000000401F20 _remove                                 address sequence                                      1     1     1      1      1      1     0     0     0
1.00 0.62 ------- 0000000000402000 _write                                0000000000401F40 _mkdir                                  address sequence                                      1     1     1      1      1      1     0     0     0
1.00 0.62 ------- 0000000000402040 ___xstat64                            00000000004024A0 _accept                                 address sequence                                      1     1     1      1      1      1     0     0     0
1.00 0.62 ------- 0000000000402050 _opendir                              0000000000401F50 _toupper                                address sequence                                      1     1     1      1      1      1     0     0     0
1.00 0.62 ------- 0000000000402060 _rmdir                                0000000000401F60 _puts                                   address sequence                                      1     1     1      1      1      1     0     0     0
1.00 0.62 ------- 0000000000402090 _htons                                0000000000401F70 _qsort                                  address sequence                                      1     1     1      1      1      1     0     0     0
1.00 0.62 ------- 00000000004020C0 _strchr                               0000000000401F80 _fread                                  address sequence                                      1     1     1      1      1      1     0     0     0
1.00 0.62 ------- 00000000004020E0 _pclose                               0000000000401FC0 _write                                  address sequence                                      1     1     1      1      1      1     0     0     0
1.00 0.62 ------- 0000000000402130 _htonl                                0000000000401FD0 _inet_ntoa                              address sequence                                      1     1     1      1      1      1     0     0     0
1.00 0.62 ------- 0000000000402140 _memset                               0000000000402000 ___xstat64                              address sequence                                      1     1     1      1      1      1     0     0     0
1.00 0.62 ------- 0000000000402160 _sendto                               0000000000402490 _vfprintf                               address sequence                                      1     1     1      1      1      1     0     0     0
1.00 0.62 ------- 0000000000402180 _fgetc                                0000000000402010 _opendir                                address sequence                                      1     1     1      1      1      1     0     0     0
1.00 0.62 ------- 00000000004021A0 _flockfile                            0000000000402090 _strchr                                 address sequence                                      1     1     1      1      1      1     0     0     0
1.00 0.62 ------- 00000000004021B0 __mcleanup                            00000000004024D0 _atoi                                   address sequence                                      1     1     1      1      1      1     0     0     0
1.00 0.62 ------- 00000000004021C0 _strspn                               00000000004020B0 _pclose                                 address sequence                                      1     1     1      1      1      1     0     0     0
1.00 0.62 ------- 00000000004021D0 _closedir                             00000000004020F0 _fputs                                  address sequence                                      1     1     1      1      1      1     0     0     0
1.00 0.62 ------- 00000000004021E0 _fputc                                0000000000402130 _sendto                                 address sequence                                      1     1     1      1      1      1     0     0     0
1.00 0.62 ------- 00000000004021F0 _strcspn                              0000000000402150 _fgetc                                  address sequence                                      1     1     1      1      1      1     0     0     0
1.00 0.62 ------- 0000000000402200 _memchr                               0000000000402170 _flockfile                              address sequence                                      1     1     1      1      1      1     0     0     0
1.00 0.62 ------- 0000000000402210 _read                                 0000000000402180 _strspn                                 address sequence                                      1     1     1      1      1      1     0     0     0
1.00 0.62 ------- 0000000000402240 _pthread_attr_init                    0000000000402190 _closedir                               address sequence                                      1     1     1      1      1      1     0     0     0
1.00 0.62 ------- 0000000000402260 _getsockopt                           00000000004021A0 _fputc                                  address sequence                                      1     1     1      1      1      1     0     0     0
1.00 0.62 ------- 0000000000402270 _calloc                               00000000004021B0 _strcspn                                address sequence                                      1     1     1      1      1      1     0     0     0
1.00 0.62 ------- 00000000004022A0 ___monstartup                         00000000004021C0 _memchr                                 address sequence                                      1     1     1      1      1      1     0     0     0
1.00 0.62 ------- 00000000004022B0 _strtoll                              0000000000402200 _pthread_attr_init                      address sequence                                      1     1     1      1      1      1     0     0     0
1.00 0.62 ------- 00000000004022C0 _getpwnam                             0000000000402220 _getsockopt                             address sequence                                      1     1     1      1      1      1     0     0     0
1.00 0.62 ------- 00000000004022D0 _gethostbyname                        0000000000402230 _calloc                                 address sequence                                      1     1     1      1      1      1     0     0     0
1.00 0.62 ------- 0000000000402340 _fileno                               0000000000402260 _strtoll                                address sequence                                      1     1     1      1      1      1     0     0     0
1.00 0.62 ------- 0000000000402350 _select                               0000000000402270 _getpwnam                               address sequence                                      1     1     1      1      1      1     0     0     0
1.00 0.62 ------- 0000000000402360 ___xstat                              0000000000402520 _lseek64                                address sequence                                      1     1     1      1      1      1     0     0     0
1.00 0.62 ------- 0000000000402370 _pthread_attr_setdetachstate          0000000000402280 _gethostbyname                          address sequence                                      1     1     1      1      1      1     0     0     0
1.00 0.62 ------- 00000000004023E0 _recvfrom                             0000000000402300 _fileno                                 address sequence                                      1     1     1      1      1      1     0     0     0
1.00 0.62 ------- 0000000000402400 _munmap                               0000000000402540 _ntohl                                  address sequence                                      1     1     1      1      1      1     0     0     0
1.00 0.62 ------- 0000000000402410 _ntohs                                0000000000402310 _select                                 address sequence                                      1     1     1      1      1      1     0     0     0
1.00 0.62 ------- 0000000000402440 _open64                               0000000000402320 ___xstat                                address sequence                                      1     1     1      1      1      1     0     0     0
1.00 0.62 ------- 0000000000402450 _strftime                             0000000000402330 _pthread_attr_setdetachstate            address sequence                                      1     1     1      1      1      1     0     0     0
1.00 0.62 ------- 0000000000402460 _memmove                              0000000000402350 _mmap64                                 address sequence                                      1     1     1      1      1      1     0     0     0
1.00 0.62 ------- 0000000000402470 _readdir64                            0000000000402370 _fflush                                 address sequence                                      1     1     1      1      1      1     0     0     0
1.00 0.62 ------- 0000000000402480 _setgid                               00000000004023A0 _recvfrom                               address sequence                                      1     1     1      1      1      1     0     0     0
1.00 0.62 ------- 00000000004024A0 _popen                                00000000004023C0 _munmap                                 address sequence                                      1     1     1      1      1      1     0     0     0
1.00 0.62 ------- 00000000004024C0 _rename                               00000000004023D0 _ntohs                                  address sequence                                      1     1     1      1      1      1     0     0     0
1.00 0.62 ------- 00000000004024D0 _gmtime                               00000000004023F0 _open64                                 address sequence                                      1     1     1      1      1      1     0     0     0
1.00 0.62 ------- 00000000004024E0 _vfprintf                             0000000000402400 _strftime                               address sequence                                      1     1     1      1      1      1     0     0     0
1.00 0.62 ------- 00000000004024F0 _accept                               0000000000402410 _memmove                                address sequence                                      1     1     1      1      1      1     0     0     0
1.00 0.62 ------- 0000000000402510 _pthread_attr_destroy                 0000000000402420 _readdir64                              address sequence                                      1     1     1      1      1      1     0     0     0
1.00 0.62 ------- 0000000000402520 ___cxa_atexit                         0000000000402530 _setuid                                 address sequence                                      1     1     1      1      1      1     0     0     0
1.00 0.62 ------- 0000000000402530 _atoi                                 0000000000402430 _setgid                                 address sequence                                      1     1     1      1      1      1     0     0     0
1.00 0.62 ------- 0000000000402550 _connect                              0000000000402450 _popen                                  address sequence                                      1     1     1      1      1      1     0     0     0
1.00 0.62 ------- 0000000000402580 _lseek64                              0000000000402470 _rename                                 address sequence                                      1     1     1      1      1      1     0     0     0
1.00 0.62 ------- 0000000000402590 _setuid                               0000000000402480 _gmtime                                 address sequence                                      1     1     1      1      1      1     0     0     0
1.00 0.62 ------- 00000000004025A0 _ntohl                                00000000004024C0 _pthread_attr_destroy                   address sequence                                      1     1     1      1      1      1     0     0     0
1.00 0.62 ------- 00000000004025B0 _strdup                               00000000004024F0 _connect                                address sequence                                      1     1     1      1      1      1     0     0     0
0.99 0.99 -I--E-- 0000000000404F0C ns_open_listening_socket              0000000000404FB7 ns_open_listening_socket                edges flowgraph MD index                              9     9     9     64     65     64    14    14    14
0.99 0.99 -I--E-- 000000000040644A ns_broadcast                          000000000040654E ns_broadcast                            edges flowgraph MD index                              7     7     7     49     50     49     9     9     9
0.99 0.99 -I--E-- 0000000000403175 path_exists                           00000000004030E9 path_exists                             edges flowgraph MD index                              6     6     6     26     27     26     8     8     8
0.99 0.99 -I--E-- 00000000004110CE proxify_connection                    0000000000411442 proxify_connection                      MD index matching (flowgraph MD index, top down)     13    13    13     94     99     98    18    18    18
0.99 0.99 -I--E-- 0000000000403C64 iobuf_resize                          0000000000403BCE iobuf_resize                            MD index matching (flowgraph MD index, top down)      6     6     6     34     35     34     9     9     9
0.99 0.99 -I--E-- 0000000000406EB8 call_user                             0000000000407036 call_user                               MD index matching (flowgraph MD index, top down)      6     6     6     29     30     29     8     8     8
0.99 0.99 -I--E-- 0000000000408821 mg_url_decode                         0000000000408956 mg_url_decode                           MD index matching (flowgraph MD index, top down)     23    23    23    153    158    161    33    33    33
0.99 0.99 -I--E-- 0000000000402724 signal_handler                        000000000040268D signal_handler                          MD index matching (flowgraph MD index, top down)      5     5     5     23     24     23     6     6     6
0.99 0.99 -I--E-- 000000000040FFD0 is_authorized_for_dav                 0000000000410346 is_authorized_for_dav                   MD index matching (flowgraph MD index, top down)      8     8     8     46     48     46    12    12    12
0.99 0.99 -I--E-- 0000000000404FEC ns_bind                               0000000000405092 ns_bind                                 edges flowgraph MD index                             12    12    12     80     84     86    16    16    16
0.98 0.99 -I--E-- 0000000000406920 mg_snprintf                           0000000000406A89 mg_snprintf                             edges flowgraph MD index                              3     3     3     35     36     35     3     3     3
0.98 0.99 -I--E-- 00000000004027CA notify                                0000000000402729 notify                                  edges flowgraph MD index                              3     3     3     33     34     33     3     3     3
0.98 0.99 -I--E-- 0000000000402875 die                                   00000000004027CF die                                     edges flowgraph MD index                              3     3     3     33     34     33     3     3     3
0.98 0.99 -I--E-- 00000000004031E2 verify_existence                      0000000000403151 verify_existence                        edges flowgraph MD index                              3     3     3     32     33     32     3     3     3
0.98 0.99 -I--E-- 0000000000403253 set_absolute_path                     00000000004031BD set_absolute_path                       edges flowgraph MD index                              9     9     9     78     84     80    11    11    11
0.98 0.99 -I--E-- 00000000004046E1 ns_call                               00000000004046D8 ns_call                                 MD index matching (flowgraph MD index, top down)      8     8     8     39     41     39    11    11    11
0.98 0.99 -I-JE-- 0000000000404159 ns_avprintf                           0000000000404162 ns_avprintf                             MD index matching (flowgraph MD index, top down)     14    14    14    104    107    106    19    19    19
0.98 0.99 -I--E-- 00000000004068A7 mg_vsnprintf                          0000000000406A11 mg_vsnprintf                            edges flowgraph MD index                              8     8     8     34     36     36    10    10    10
0.98 0.99 GI--E-C 000000000040BBA1 deliver_websocket_frame               000000000040BD22 deliver_websocket_frame                 loop count matching                                  25    25    25    170    173    175    36    37    36
0.98 0.98 -I--E-- 00000000004069DD get_request_len                       0000000000406B41 get_request_len                         MD index matching (flowgraph MD index, top down)     19    19    19     91     95     97    30    30    30
0.98 0.98 -I--E-- 0000000000413DAC iter2                                 000000000041422F iter2                                   MD index matching (flowgraph MD index, top down)      5     5     5     38     41     40     7     7     7
0.98 0.98 -I--E-- 000000000040E7F5 open_auth_file                        000000000040EBB6 open_auth_file                          edges flowgraph MD index                             10    10    10     76     82     80    12    12    12
0.97 0.98 -I--E-- 000000000040766D addenv                                00000000004077D9 addenv                                  edges flowgraph MD index                              9     9     9     79     85     83    12    12    12
0.97 0.97 -I--E-- 0000000000407355 mg_printf                             00000000004074C4 mg_printf                               call reference matching                               3     3     3     40     41     40     3     3     3
0.97 0.98 -I--E-- 0000000000403090 is_path_absolute                      0000000000403002 is_path_absolute                        edges flowgraph MD index                              5     5     5     13     16     14     6     6     6
0.97 0.99 -I--E-- 0000000000402A9A sdup                                  00000000004029E9 sdup                                    edges flowgraph MD index                              3     3     3     20     29     21     3     3     3
0.97 0.98 -I--E-- 00000000004052D5 ns_sock_to_str                        00000000004053D1 ns_sock_to_str                          MD index matching (flowgraph MD index, top down)     15    15    15     84    104    100    20    20    20
0.97 0.98 -I--E-- 0000000000409554 must_hide_file                        000000000040963B must_hide_file                          MD index matching (flowgraph MD index, top down)      6     6     6     37     54     39     8     8     8
0.97 0.97 -I--E-- 0000000000407476 start_process                         00000000004075FF start_process                           MD index matching (flowgraph MD index, top down)     14    14    14     94    104     99    16    16    16
0.97 0.97 -I--E-- 0000000000402C2C process_command_line_arguments        0000000000402B84 process_command_line_arguments          edges flowgraph MD index                             33    33    33    203    223    228    47    47    47
0.97 0.98 GI--E-C 0000000000404B8A ns_parse_address                      0000000000404C14 ns_parse_address                        string references                                    23    23    23    174    186    196    32    33    32
0.96 0.97 -I--E-- 0000000000402B02 set_option                            0000000000402A31 set_option                              edges flowgraph MD index                             10    10    10     75     86     89    13    13    13
0.96 0.97 -I--E-- 0000000000405A57 ns_add_to_set                         0000000000405BD9 ns_add_to_set                           MD index matching (flowgraph MD index, top down)      5     5     5     43     50     44     7     7     7
0.96 0.99 GI--E-- 00000000004086DA remove_double_dots_and_double_slashes 0000000000408819 remove_double_dots_and_double_slashes   loop count matching                                  23    24    23     93    101     99    36    39    38
0.95 0.97 GI-JE-C 000000000040D141 scan_directory                        000000000040D3FB scan_directory                          call sequence matching(sequence)                     16    16    17    159    165    165    22    23    24
0.95 0.96 -I--E-- 00000000004030C1 get_option                            000000000040302A get_option                              edges flowgraph MD index                              7     7     7     33     37     39     8     8     8
0.95 0.97 GI--E-- 00000000004042DA ns_vprintf                            00000000004042DD ns_vprintf                              call reference matching                               8     8     8     43     45     47     9    10     9
0.93 0.98 GI--ELC 00000000004108C3 send_ssi_file                         0000000000410C08 send_ssi_file                           string references                                    34    35    35    175    192    188    43    50    45
0.93 0.98 GI--E-C 0000000000404472 hexdump                               0000000000404474 hexdump                                 call reference matching                              27    29    27    123    137    126    32    38    35
0.92 0.93 -I--E-- 0000000000402920 show_usage_and_exit                   0000000000402875 show_usage_and_exit                     edges flowgraph MD index                              7     7     7     76     92     84     8     8     8
0.92 0.92 -I--E-- 0000000000413E41 mg_wakeup_server_ex                   00000000004142C0 mg_wakeup_server_ex                     edges flowgraph MD index                              5     5     5     64     66     66     5     5     5
0.92 0.96 GI-JE-C 000000000040DFB3 remove_directory                      000000000040E281 remove_directory                        call sequence matching(sequence)                     13    13    14     74     79     81    16    17    18
0.92 0.98 GI--ELC 0000000000405AE7 ns_mgr_poll                           0000000000405C57 ns_mgr_poll                             call sequence matching(sequence)                     43    47    45    327    368    336    61    72    63
0.92 0.97 GI--E-C 0000000000409057 mg_match_prefix                       0000000000409143 mg_match_prefix                         string references                                    30    32    30    143    179    171    40    45    41
0.90 0.99 GI--E-- 000000000040D84D compare_dir_entries                   000000000040DB0A compare_dir_entries                     string references                                    25    31    29    106    115    114    33    43    41
0.88 0.88 -I--E-- 00000000004043B9 ns_printf                             00000000004043C0 ns_printf                               call sequence matching(exact)                         3     3     3     35     36     35     3     3     3
0.87 0.95 GI--E-- 000000000040C5C3 parse_date_string                     000000000040C7F1 parse_date_string                       string references                                     9    10     9     80    130     92    12    15    12
0.87 0.88 -I--E-- 0000000000409EEF blk0                                  0000000000409F74 blk0                                    address sequence                                      3     3     3     29     33     32     3     3     3
0.86 0.97 GI--E-- 0000000000410F62 mg_forward                            00000000004112DD mg_forward                              call reference matching                              12    13    12     86     95     93    11    17    15
0.85 0.85 -I--E-- 0000000000402772 vnotify                               00000000004026D6 vnotify                                 edges flowgraph MD index                              3     3     3     22     23     22     2     2     2
0.84 0.86 GI--E-- 0000000000409D63 mg_printf_data                        000000000040C29E mg_websocket_printf                     call sequence matching(sequence)                     10    10    10     62     71     69    12    13    12
0.79 0.97 GI--E-C 00000000004103F0 do_ssi_include                        0000000000410784 do_ssi_include                          string references                                    15    19    16    109    202    148    13    25    20
0.69 0.95 -I--E-- 0000000000403051 init_server_name                      0000000000402FCB init_server_name                        MD index matching (flowgraph MD index, top down)      1     1     1     14     16     14     0     0     0
0.68 0.95 -I--E-- 00000000004130AB mg_get_valid_option_names             0000000000413536 mg_get_valid_option_names               MD index matching (flowgraph MD index, top down)      1     1     1      5      6      5     0     0     0
0.68 0.95 -I--E-C 000000000040C8F0 construct_etag                        0000000000407418 write_chunk                             MD index matching (flowgraph MD index, top down)      1     1     1     19     22     26     0     0     0
0.67 0.95 -I--E-C 000000000040D075 mg_send_file_data                     000000000040CEC6 open_file_endpoint                      MD index matching (flowgraph MD index, top down)      1     1     1     16     20     21     0     0     0
0.66 0.95 -I--E-C 00000000004066E7 mg_munmap                             0000000000413CB0 on_accept                               MD index matching (flowgraph MD index, top down)      1     1     1     10     13     19     0     0     0
0.65 0.90 -I--E-- 0000000000404823 ns_set_non_blocking_mode              000000000040486F ns_set_non_blocking_mode                call reference matching                               1     1     1     20     22     21     0     0     0
0.65 0.95 -I--E-- 00000000004047F8 ns_set_close_on_exec                  0000000000404825 ns_set_close_on_exec                    MD index matching (flowgraph MD index, top down)      1     1     1      4     13      5     0     0     0
0.65 0.95 -I--E-- 0000000000403B88 main                                  0000000000403AFF main                                    MD index matching (flowgraph MD index, top down)      1     1     1     12     53     12     0     0     0
0.63 0.92 -I--E-- 0000000000402390 _mmap64                               00000000004085E2 isbyte                                  MD index matching (callGraph MD index, top down)      1     1     1      1      1      4     0     0     0
0.62 0.95 -I--E-- 00000000004023B0 _fflush                               00000000004036AD start_mongoose                          MD index matching (flowgraph MD index, top down)      1     1     1      0      1     10     0     0     0
0.60 0.90 -I--E-C 0000000000401EA0 _init_proc                            00000000004048B4 ns_socketpair2                          call reference matching                               1     1     1      4      6     30     0     0     0
0.59 0.62 -I--E-- 000000000040400B ns_start_thread                       00000000004073FF sub_4073FF_0                            call sequence matching(sequence)                      3     3     3      6     33      6     2     2     2
0.57 0.80 GI--EL- 0000000000405662 ns_read_from_socket                   0000000000405772 ns_read_from_socket                     call sequence matching(sequence)                      7    12     9     58     91     77     4    15     9
0.55 0.91 GI--E-- 0000000000403D74 iobuf_append                          0000000000403D17 iobuf_append                            string references                                     5    14     5     25    107     26     3    17     4
0.47 0.50 -I--E-C 00000000004058EE ns_handle_udp                         000000000040709A send_http_error                         MD index matching (flowgraph MD index, top down)      5     5     5     12     70     49     5     5     5
0.44 0.62 -I--E-- 000000000040EA72 MD5Transform                          000000000040EE65 MD5Transform                            address sequence                                      1     1     1    732    863    860     0     0     0
0.44 0.62 -I--E-C 0000000000409F57 SHA1Transform                         0000000000409FD6 SHA1Transform                           address sequence                                      1     1     1   1625   1937   2018     0     0     0
0.44 0.62 -I--E-- 0000000000411DF1 do_proxy                              000000000040CB5D is_not_modified                         address sequence                                      1     1     1     11     14     14     0     0     0
0.44 0.62 -I--E-- 0000000000413F8E mg_wakeup_server                      0000000000413761 mg_set_option                           address sequence                                      1     1     1     10     13     13     0     0     0
0.44 0.62 -I--E-- 0000000000404AB6 ns_socketpair                         0000000000412A44 close_local_endpoint                    address sequence                                      1     1     1      8     11     11     0     0     0
0.44 0.62 -I--E-- 00000000004047B7 ns_close_conn                         000000000040FE65 check_password                          address sequence                                      1     1     1     12     18     18     0     0     0
0.43 0.62 -I--E-- 0000000000408ECC lowercase                             000000000040552E ns_hexdump                              address sequence                                      1     1     1      6     12     12     0     0     0
0.43 0.62 -I--E-- 0000000000412A89 mg_poll_server                        0000000000403CB2 iobuf_free                              address sequence                                      1     1     1      4     13      5     0     0     0
0.42 0.62 -I--E-- 0000000000401F10 _pthread_create                       00000000004040D7 ns_remove_conn                          address sequence                                      1     1     1      1      1      4     0     0     0
0.42 0.62 -I--E-- 00000000004058BC ns_send                               00000000004047C5 ns_close_conn                           address sequence                                      1     1     1      4     15      5     0     0     0
0.42 0.62 -I--E-- 000000000040CBD0 parse_range_header                    00000000004066E7 ns_mgr_free                             address sequence                                      1     1     1      4     16      5     0     0     0
0.42 0.62 -I--E-- 000000000040C353 write_terminating_chunk               000000000040C77A num_leap_years                          address sequence                                      1     1     1      3     13      4     0     0     0
0.42 0.62 -I--E-- 000000000040CC09 gmt_time_string                       0000000000408B7E is_valid_http_method                    address sequence                                      1     1     1      4     18      5     0     0     0
0.42 0.62 -I--E-- 000000000040E73E send_options                          0000000000408F2E lowercase                               address sequence                                      1     1     1      4     19      5     0     0     0
0.42 0.62 -I--E-- 000000000040EA1E MD5Init                               0000000000409597 is_dav_request                          address sequence                                      1     1     1      4     19      5     0     0     0
0.42 0.62 -I--E-- 000000000040E78A mg_send_digest_auth_request           0000000000403EC7 iobuf_remove                            address sequence                                      1     1     1      5     26      6     0     0     0
0.42 0.62 -I--E-- 00000000004116CB mg_send_file                          0000000000404B3E ns_resolve2                             address sequence                                      1     1     1      5     26      6     0     0     0
0.42 0.62 -I--E-- 0000000000403CDD iobuf_init                            000000000040C552 call_request_handler                    address sequence                                      1     1     1      4     21      5     0     0     0
0.42 0.62 -I--E-- 0000000000409ED4 is_big_endian                         00000000004132C6 mg_parse_multipart                      address sequence                                      1     1     1      3     10     10     0     0     0
0.42 0.62 -I--E-- 000000000040476A ns_destroy_conn                       000000000040E9E9 forward_put_data                        address sequence                                      1     1     1      4     22      5     0     0     0
0.42 0.62 -I--E-- 0000000000409B10 mg_write                              000000000040EAC1 send_options                            address sequence                                      1     1     1      4     22      5     0     0     0
0.42 0.62 -I--E-- 0000000000407425 ns_forward                            000000000040EB2C mg_send_digest_auth_request             address sequence                                      1     1     1      4     23      5     0     0     0
0.42 0.62 -I--E-- 000000000040B526 SHA1Init                              0000000000411EC6 send_continue_if_expected               address sequence                                      1     1     1      4     23      5     0     0     0
0.42 0.62 -I--E-- 0000000000409D0C mg_send_data                          0000000000413613 get_option_index                        address sequence                                      1     1     1      4     25      5     0     0     0
0.42 0.62 -I--E-- 0000000000414027 mg_create_server                      000000000041440B mg_wakeup_server                        address sequence                                      1     1     1      4     25      5     0     0     0
0.42 0.62 -I--E-- 000000000040C569 num_leap_years                        0000000000413541 mg_copy_listeners                       address sequence                                      1     1     1      5     35      6     0     0     0
0.40 0.62 -I--E-- 0000000000401ED0 _inet_ntop                            000000000040CAC4 sub_40CAC4_2                            address sequence                                      1     1     1      0      1      2     0     0     0
0.40 0.62 -I--E-- 0000000000401EE0 _getenv                               0000000000414610 _term_proc                              address sequence                                      1     1     1      0      1      3     0     0     0
0.40 0.62 -I--E-- 00000000004141A8 _term_proc                            000000000040EDF6 MD5Init                                 address sequence                                      1     1     1      0      4      4     0     0     0
0.40 0.57 GI--E-C 000000000040386C set_options                           0000000000412FE2 get_var                                 call sequence matching(sequence)                      9     9    15     32    169     67     6    12    22
0.39 0.55 GI--ELC 00000000004033E8 modify_passwords_file                 000000000040626F ns_connect                              call sequence matching(sequence)                     14    25    16     50    173     89    12    36    19
0.36 0.92 GI--E-- 0000000000411C68 try_parse                             000000000040E69D handle_put                              string references                                     1     8     1      5     93     10     0    11     0
0.35 0.56 GI--E-- 0000000000408C05 parse_http_message                    0000000000408C87 parse_http_message                      call sequence matching(sequence)                      7    21     7     65    184     67     8    31     8
0.31 0.78 G---E-- 0000000000402630 __gmon_start__                        00000000004022A0 ___gmon_start__                         call reference matching                               1     8     1      1     22      1     0     8     0
0.30 0.62 GI--EL- 000000000040FC6F mg_authorize_digest                   000000000040FFBC mg_authorize_digest                     call reference matching                               6    30     6     23    160     30     4    44     6
0.28 0.35 GI--E-- 0000000000403138 serving_thread_func                   000000000040CC29 find_index_file                         call sequence matching(sequence)                      4     4     5      9     18     38     3     4     6
0.25 0.40 GI--E-C 00000000004084DF parse_net                             000000000040862A parse_net                               string references                                     4    13     4     39    101     46     4    21     4
0.23 0.50 GI--E-- 0000000000414090 __libc_csu_init                       0000000000404B1F ns_socketpair                           MD index matching (callGraph MD index, top down)      1     4     1      6     34      8     0     5     0
0.23 0.44 GI--E-- 00000000004072A4 write_chunk                           000000000040BFB0 mg_websocket_write                      call reference matching                               1     3     1     12     47     15     0     2     0
0.22 0.40 GI--E-- 000000000040D5C4 print_dir_entry                       00000000004079F0 prepare_cgi_environment                 call sequence matching(sequence)                      4    15    22     19    131    225     2    19    28
0.21 0.44 GI--E-- 0000000000403F81 ns_out                                0000000000403F58 ns_out                                  call reference matching                               1     4     1      6     37      7     0     4     0
0.20 0.44 GI--E-- 0000000000402700 frame_dummy                           0000000000402060 _htons                                  call reference matching                               1     4     1      0     12      1     0     4     0
0.20 0.44 GI--E-- 0000000000414170 __do_global_ctors_aux                 0000000000402100 _htonl                                  call reference matching                               1     4     1      0     18      1     0     5     0
0.19 0.44 GI--E-- 0000000000405817 ns_write_to_socket                    0000000000405922 ns_write_to_socket                      call reference matching                               1     5     1      4     47      5     0     6     0
0.19 0.32 GI--E-- 000000000040B6DC SHA1Final                             000000000040333B modify_passwords_file                   call sequence matching(sequence)                     11    24    26     32    140    153     7    32    35
0.19 0.44 GI--EL- 0000000000408FD2 mg_get_header                         000000000040909F mg_get_header                           call reference matching                               1     7     1      6     39      6     0     8     0
0.18 0.44 GI--E-- 00000000004107B3 do_ssi_exec                           0000000000410ADC do_ssi_exec                             call reference matching                               1     8     1      8     58      9     0     9     0
0.17 0.32 GI-JE-- 00000000004092A1 mg_template                           00000000004103F2 parse_header                            call sequence matching(sequence)                     15    20    40     29    133    180     6    29    66
0.15 0.44 GI--EL- 0000000000410DAB proxy_request                         0000000000411107 proxy_request                           call reference matching                               1    15     1      6    111      7     0    19     0
0.14 0.38 GI--EL- 000000000040F9A1 mg_md5                                00000000004096CA convert_uri_to_file_name                call sequence matching(exact)                         1    11     1      8     86     14     0    13     0
0.13 0.17 GI--E-- 000000000040DF06 handle_mkcol                          000000000040D89B print_dir_entry                         call sequence matching(sequence)                      8    11    13     25     47    100     8    15    17
0.13 0.22 GI--ELC 000000000040B588 SHA1Update                            000000000040FCD4 mg_md5                                  call sequence matching(sequence)                      3     9     3     13     95     26     1    11     3
0.10 0.20 GI--E-- 00000000004062E8 ns_add_sock                           0000000000406440 ns_add_sock                             call reference matching                               3    15     3     20     92     26     2    21     2
0.10 0.12 GI--ELC 000000000040545A ns_hexdump                            0000000000411A7E open_local_endpoint                     call sequence matching(sequence)                     14    17    15     35    157     77    11    22    18
0.09 0.21 GI--E-- 000000000040486D ns_socketpair2                        00000000004082C1 on_cgi_data                             call sequence matching(sequence)                      5    25     5     16    164     26     3    39     4
0.09 0.14 GI--E-- 0000000000403D2E iobuf_free                            0000000000409DC2 mg_printf_data                          call sequence matching(sequence)                      4     5    10     14     21     73     3     6    12
0.09 0.10 -I--E-- 000000000040BA30 send_websocket_handshake              0000000000406DE9 status_code_to_str                      address sequence                                      3     3     3      5     78     13     2     2     2
0.07 0.12 GI--E-- 0000000000403F0F iobuf_remove                          0000000000411629 mg_send_file_internal                   call sequence matching(sequence)                      4     4    13      9     33    130     4     5    14
0.07 0.27 GI--EL- 000000000040786C prepare_cgi_environment               0000000000409A3C should_keep_alive                       call sequence matching(sequence)                      1    43     1      4    403     17     0    56     0
0.05 0.10 GI--E-- 0000000000405195 accept_conn                           00000000004119C6 sub_4119C6_4                            call sequence matching(sequence)                      3     7     3      5     56      8     0     8     2
0.05 0.08 GI--E-- 0000000000404B2A ns_resolve                            0000000000412D37 transfer_file_data                      call sequence matching(exact)                         4     4    11     13     28     54     2     4    12
0.02 0.04 GI--EL- 0000000000406BA1 parse_http_headers                    0000000000406D2E parse_http_headers                      call sequence matching(sequence)                      3     7     3      9     52     15     1     8     2
0.01 0.03 GI--E-- 000000000040641C ns_next                               0000000000405247 accept_conn                             call sequence matching(exact)                         1     4     1      5     15     12     0     4     0
0.01 0.03 GI--EL- 000000000040C519 get_month_index                       000000000040C70B get_month_index                         call sequence matching(exact)                         1     7     1      5     24      5     0     8     0
0.01 0.03 GI--EL- 0000000000413278 set_default_option_values             0000000000413692 set_default_option_values               call sequence matching(exact)                         1     7     1      8     47      8     0     9     0
0.01 0.03 GI--ELC 000000000040CA0F find_index_file                       0000000000404001 ns_start_thread                         call sequence matching(exact)                         1    15     3     18    105     35     0    21     2
0.01 0.03 GI--EL- 000000000040D9E0 send_directory_listing                0000000000408012 open_cgi_endpoint                       call sequence matching(exact)                         1     8     1      8    102     14     0    10     0
0.01 0.03 GI--E-- 0000000000407ED3 open_cgi_endpoint                     000000000040CAC6 suggest_connection_header               call sequence matching(exact)                         1    10     1      7    138      7     0    12     0
0.01 0.02 GI--EL- 0000000000406B1A skip                                  0000000000406C82 skip                                    call sequence matching(sequence)                      1     4     1      6     38      6     0     4     0
0.01 0.02 GI--E-- 0000000000404ADA ns_resolve2                           00000000004059E6 ns_send                                 call sequence matching(sequence)                      1     4     1      6     24      7     0     4     0
0.01 0.02 GI--E-- 0000000000413FBC mg_get_option                         0000000000408FFC mg_strncasecmp                          call sequence matching(sequence)                      1     7     1      6     33      8     0     8     0
0.01 0.02 GI--E-- 000000000040527B ns_is_error                           0000000000405352 ns_is_error                             call sequence matching(topology)                      1     9     1      4     30      5     0    14     0
0.01 0.02 GI--E-C 0000000000403756 start_mongoose                        000000000040C9F8 get_mime_type                           call sequence matching(sequence)                      1    12     1     11     75     20     0    15     0
0.01 0.02 GI--E-C 000000000040818A on_cgi_data                           000000000040DED3 handle_propfind                         call sequence matching(sequence)                      1    17     1     10    143     15     0    23     0
0.01 0.02 GI--EL- 0000000000406F21 send_http_error                       000000000040D6FA mg_url_encode                           call sequence matching(sequence)                      1    22     1      7    172      8     0    31     0