1.00 0.99 ------- 0000000000405520 ftp_listener_start           00000000004051C0 ftp_listener_start             edges flowgraph MD index                             10    10    10     52     52     52    10    10    10
1.00 0.99 ------- 0000000000404840 addr2string                  00000000004044C0 addr2string                    prime signature matching                              4     4     4     13     13     13     3     3     3
1.00 0.99 ------- 0000000000401EA8 _init_proc                   0000000000402A98 call_gmon_start                prime signature matching                              3     3     3      7      7      7     3     3     3
1.00 0.98 ------- 0000000000402D1E _start                       0000000000402A6C _start                         prime signature matching                              1     1     1     12     12     12     0     0     0
1.00 0.95 ------- 0000000000402020 _write                       0000000000401D60 _write                         MD index matching (flowgraph MD index, top down)      1     1     1      1      1      1     0     0     0
1.00 0.95 ------- 0000000000402070 _shutdown                    0000000000401DB0 _shutdown                      MD index matching (flowgraph MD index, bottom up)     1     1     1      1      1      1     0     0     0
1.00 0.95 ------- 000000000040B4E0 __libc_csu_fini              000000000040A880 __libc_csu_fini                prime signature matching                              1     1     1      1      1      1     0     0     0
1.00 0.92 ------- 00000000004021D0 ___libc_start_main           0000000000401F00 ___libc_start_main             MD index matching (callGraph MD index, top down)      1     1     1      1      1      1     0     0     0
1.00 0.92 ------- 0000000000402290 _memcpy                      0000000000402020 _seed48                        MD index matching (callGraph MD index, top down)      1     1     1      1      1      1     0     0     0
1.00 0.90 ------- 0000000000401F20 ___snprintf_chk              0000000000401E30 _snprintf                      call reference matching                               1     1     1      1      1      1     0     0     0
1.00 0.90 ------- 0000000000401F40 _pthread_create              0000000000401C80 _pthread_create                call reference matching                               1     1     1      1      1      1     0     0     0
1.00 0.90 ------- 0000000000401F70 _pthread_detach              0000000000401CB0 _pthread_detach                call reference matching                               1     1     1      1      1      1     0     0     0
1.00 0.90 ------- 0000000000401F80 ___errno_location            0000000000401EB0 _close                         call reference matching                               1     1     1      1      1      1     0     0     0
1.00 0.90 ------- 0000000000402090 _strlen                      0000000000401DC0 _strlen                        call reference matching                               1     1     1      1      1      1     0     0     0
1.00 0.90 ------- 00000000004020C0 ___stack_chk_fail            0000000000401DF0 ___stack_chk_fail              call reference matching                               1     1     1      1      1      1     0     0     0
1.00 0.90 ------- 0000000000402100 ___fdelt_chk                 0000000000401FD0 _select                        call reference matching                               1     1     1      1      1      1     0     0     0
1.00 0.90 ------- 00000000004021C0 _read                        0000000000401EF0 _read                          call reference matching                               1     1     1      1      1      1     0     0     0
1.00 0.90 ------- 00000000004021E0 _memcmp                      0000000000401F10 _memcmp                        call reference matching                               1     1     1      1      1      1     0     0     0
1.00 0.90 ------- 00000000004022C0 _select                      0000000000401D30 _setsockopt                    call reference matching                               1     1     1      1      1      1     0     0     0
1.00 0.90 ------- 0000000000402300 _pthread_mutex_unlock        0000000000402010 _pthread_mutex_unlock          call reference matching                               1     1     1      1      1      1     0     0     0
1.00 0.90 ------- 0000000000402330 _pthread_exit                0000000000402040 _pthread_exit                  call reference matching                               1     1     1      1      1      1     0     0     0
1.00 0.90 ------- 00000000004023A0 ___vsnprintf_chk             0000000000401D20 _vsnprintf                     call reference matching                               1     1     1      1      1      1     0     0     0
1.00 0.90 ------- 00000000004023C0 ___strcpy_chk                0000000000401CE0 _strcpy                        call reference matching                               1     1     1      1      1      1     0     0     0
1.00 0.90 ------- 00000000004023F0 ___syslog_chk                0000000000402070 _syslog                        call reference matching                               1     1     1      1      1      1     0     0     0
1.00 0.90 ------- 0000000000402450 _accept                      00000000004021F0 _strerror                      call reference matching                               1     1     1      1      1      1     0     0     0
1.00 0.90 ------- 0000000000402460 _getsockname                 0000000000402150 _getsockname                   call reference matching                               1     1     1      1      1      1     0     0     0
1.00 0.90 ------- 00000000004024B0 _exit                        00000000004021B0 _exit                          call reference matching                               1     1     1      1      1      1     0     0     0
1.00 0.90 ------- 00000000004024D0 ___fprintf_chk               0000000000401F70 _fprintf                       call reference matching                               1     1     1      1      1      1     0     0     0
1.00 0.90 ------- 0000000000402500 _strerror                    0000000000401CC0 ___errno_location              call reference matching                               1     1     1      1      1      1     0     0     0
1.00 0.90 ------- 0000000000402520 _pthread_mutex_init          0000000000402210 _pthread_mutex_init            call reference matching                               1     1     1      1      1      1     0     0     0
1.00 0.90 ------- 0000000000402550 _pthread_mutex_lock          0000000000402240 _pthread_mutex_lock            call reference matching                               1     1     1      1      1      1     0     0     0
1.00 0.62 ------- 0000000000401FB0 _chroot                      0000000000401C50 _inet_ntop                     address sequence                                      1     1     1      1      1      1     0     0     0
1.00 0.62 ------- 0000000000401FD0 _pthread_cancel              0000000000401C60 _globfree                      address sequence                                      1     1     1      1      1      1     0     0     0
1.00 0.62 ------- 0000000000401FE0 ___pthread_register_cancel   0000000000401C70 _free                          address sequence                                      1     1     1      1      1      1     0     0     0
1.00 0.62 ------- 0000000000401FF0 _setsockopt                  0000000000401C90 _pthread_sigmask               address sequence                                      1     1     1      1      1      1     0     0     0
1.00 0.62 ------- 0000000000402000 _readlink                    0000000000401CA0 _strcasecmp                    address sequence                                      1     1     1      1      1      1     0     0     0
1.00 0.62 ------- 0000000000402010 _fcntl                       0000000000401CD0 _localtime_r                   address sequence                                      1     1     1      1      1      1     0     0     0
1.00 0.62 ------- 0000000000402030 _getpid                      0000000000401CF0 _chroot                        address sequence                                      1     1     1      1      1      1     0     0     0
1.00 0.62 ------- 0000000000402040 _inet_ntoa                   0000000000401D00 _pthread_cancel                address sequence                                      1     1     1      1      1      1     0     0     0
1.00 0.62 ------- 0000000000402050 _pthread_cond_wait           0000000000401D10 ___pthread_register_cancel     address sequence                                      1     1     1      1      1      1     0     0     0
1.00 0.62 ------- 0000000000402060 _pthread_once                0000000000401D40 _readlink                      address sequence                                      1     1     1      1      1      1     0     0     0
1.00 0.62 ------- 0000000000402080 _stpcpy                      0000000000401D50 _fcntl                         address sequence                                      1     1     1      1      1      1     0     0     0
1.00 0.62 ------- 00000000004020A0 ___lxstat                    0000000000401D70 _getpid                        address sequence                                      1     1     1      1      1      1     0     0     0
1.00 0.62 ------- 00000000004020B0 _chdir                       0000000000401DA0 _pthread_once                  address sequence                                      1     1     1      1      1      1     0     0     0
1.00 0.62 ------- 00000000004020D0 _dup2                        0000000000401DD0 ___lxstat                      address sequence                                      1     1     1      1      1      1     0     0     0
1.00 0.62 ------- 00000000004020E0 _strchr                      0000000000401DE0 _chdir                         address sequence                                      1     1     1      1      1      1     0     0     0
1.00 0.62 ------- 00000000004020F0 _difftime                    0000000000401E00 _dup2                          address sequence                                      1     1     1      1      1      1     0     0     0
1.00 0.62 ------- 0000000000402110 _gai_strerror                0000000000401E10 _strchr                        address sequence                                      1     1     1      1      1      1     0     0     0
1.00 0.62 ------- 0000000000402120 _strrchr                     0000000000401E20 _difftime                      address sequence                                      1     1     1      1      1      1     0     0     0
1.00 0.62 ------- 0000000000402130 _gmtime_r                    0000000000401E40 _gai_strerror                  address sequence                                      1     1     1      1      1      1     0     0     0
1.00 0.62 ------- 0000000000402140 _lseek                       0000000000401E50 _strrchr                       address sequence                                      1     1     1      1      1      1     0     0     0
1.00 0.62 ------- 0000000000402150 _gettimeofday                0000000000401E60 _gmtime_r                      address sequence                                      1     1     1      1      1      1     0     0     0
1.00 0.62 ------- 0000000000402160 _geteuid                     0000000000401E70 _lseek                         address sequence                                      1     1     1      1      1      1     0     0     0
1.00 0.62 ------- 0000000000402170 _getcwd                      0000000000401E80 _gettimeofday                  address sequence                                      1     1     1      1      1      1     0     0     0
1.00 0.62 ------- 0000000000402180 _close                       0000000000401E90 _geteuid                       address sequence                                      1     1     1      1      1      1     0     0     0
1.00 0.62 ------- 0000000000402190 _pipe                        0000000000401EA0 _getcwd                        address sequence                                      1     1     1      1      1      1     0     0     0
1.00 0.62 ------- 00000000004021A0 _setsid                      0000000000401EC0 _pipe                          address sequence                                      1     1     1      1      1      1     0     0     0
1.00 0.62 ------- 00000000004021B0 _memchr                      0000000000401ED0 _setsid                        address sequence                                      1     1     1      1      1      1     0     0     0
1.00 0.62 ------- 00000000004021F0 _pthread_cond_signal         0000000000401EE0 _memchr                        address sequence                                      1     1     1      1      1      1     0     0     0
1.00 0.62 ------- 0000000000402200 _glob                        0000000000401F20 _pthread_cond_signal           address sequence                                      1     1     1      1      1      1     0     0     0
1.00 0.62 ------- 0000000000402210 _strcmp                      0000000000401F30 _glob                          address sequence                                      1     1     1      1      1      1     0     0     0
1.00 0.62 ------- 0000000000402220 _signal                      0000000000401F40 _strcmp                        address sequence                                      1     1     1      1      1      1     0     0     0
1.00 0.62 ------- 0000000000402230 _getpwnam                    0000000000401F50 _signal                        address sequence                                      1     1     1      1      1      1     0     0     0
1.00 0.62 ------- 0000000000402240 ___memcpy_chk                0000000000401F60 _getpwnam                      address sequence                                      1     1     1      1      1      1     0     0     0
1.00 0.62 ------- 0000000000402250 _sigemptyset                 0000000000401F80 _sigemptyset                   address sequence                                      1     1     1      1      1      1     0     0     0
1.00 0.62 ------- 0000000000402270 _strtol                      0000000000401F90 _strtol                        address sequence                                      1     1     1      1      1      1     0     0     0
1.00 0.62 ------- 0000000000402280 ___pthread_unregister_cancel 0000000000401FA0 ___pthread_unregister_cancel   address sequence                                      1     1     1      1      1      1     0     0     0
1.00 0.62 ------- 00000000004022A0 _time                        0000000000401FB0 _memcpy                        address sequence                                      1     1     1      1      1      1     0     0     0
1.00 0.62 ------- 00000000004022B0 ___stpcpy_chk                0000000000401FC0 _time                          address sequence                                      1     1     1      1      1      1     0     0     0
1.00 0.62 ------- 00000000004022D0 _inet_aton                   0000000000401FF0 ___xstat                       address sequence                                      1     1     1      1      1      1     0     0     0
1.00 0.62 ------- 00000000004022E0 ___xstat                     0000000000402000 _pthread_cond_init             address sequence                                      1     1     1      1      1      1     0     0     0
1.00 0.62 ------- 00000000004022F0 _pthread_cond_init           0000000000402030 ___rawmemchr                   address sequence                                      1     1     1      1      1      1     0     0     0
1.00 0.62 ------- 0000000000402310 _seed48                      0000000000402050 _malloc                        address sequence                                      1     1     1      1      1      1     0     0     0
1.00 0.62 ------- 0000000000402320 ___rawmemchr                 0000000000402060 _strncasecmp                   address sequence                                      1     1     1      1      1      1     0     0     0
1.00 0.62 ------- 0000000000402350 _strncasecmp                 0000000000402080 ___fxstat                      address sequence                                      1     1     1      1      1      1     0     0     0
1.00 0.62 ------- 0000000000402360 ___fxstat                    0000000000402090 _listen                        address sequence                                      1     1     1      1      1      1     0     0     0
1.00 0.62 ------- 0000000000402370 _listen                      00000000004020A0 _getegid                       address sequence                                      1     1     1      1      1      1     0     0     0
1.00 0.62 ------- 0000000000402380 _getegid                     00000000004020B0 _lrand48                       address sequence                                      1     1     1      1      1      1     0     0     0
1.00 0.62 ------- 0000000000402390 _lrand48                     00000000004020C0 _sendfile                      address sequence                                      1     1     1      1      1      1     0     0     0
1.00 0.62 ------- 00000000004023B0 _sendfile                    00000000004020D0 _bind                          address sequence                                      1     1     1      1      1      1     0     0     0
1.00 0.62 ------- 00000000004023D0 _bind                        00000000004020E0 _strftime                      address sequence                                      1     1     1      1      1      1     0     0     0
1.00 0.62 ------- 00000000004023E0 _strftime                    00000000004020F0 _pthread_self                  address sequence                                      1     1     1      1      1      1     0     0     0
1.00 0.62 ------- 0000000000402400 _pthread_self                0000000000402100 _setgid                        address sequence                                      1     1     1      1      1      1     0     0     0
1.00 0.62 ------- 0000000000402410 _setgid                      0000000000402110 _open                          address sequence                                      1     1     1      1      1      1     0     0     0
1.00 0.62 ------- 0000000000402420 _open                        0000000000402120 _sysconf                       address sequence                                      1     1     1      1      1      1     0     0     0
1.00 0.62 ------- 0000000000402430 _sysconf                     0000000000402130 _pthread_setcanceltype         address sequence                                      1     1     1      1      1      1     0     0     0
1.00 0.62 ------- 0000000000402440 _pthread_setcanceltype       0000000000402140 _accept                        address sequence                                      1     1     1      1      1      1     0     0     0
1.00 0.62 ------- 0000000000402470 _sigwait                     0000000000402160 _sigwait                       address sequence                                      1     1     1      1      1      1     0     0     0
1.00 0.62 ------- 0000000000402480 _strcat                      0000000000402170 _strcat                        address sequence                                      1     1     1      1      1      1     0     0     0
1.00 0.62 ------- 0000000000402490 _openlog                     0000000000402180 _openlog                       address sequence                                      1     1     1      1      1      1     0     0     0
1.00 0.62 ------- 00000000004024A0 ___pthread_unwind_next       0000000000402190 ___pthread_unwind_next         address sequence                                      1     1     1      1      1      1     0     0     0
1.00 0.62 ------- 00000000004024C0 _connect                     00000000004021A0 _sprintf                       address sequence                                      1     1     1      1      1      1     0     0     0
1.00 0.62 ------- 00000000004024E0 _setuid                      00000000004021C0 _connect                       address sequence                                      1     1     1      1      1      1     0     0     0
1.00 0.62 ------- 00000000004024F0 _getaddrinfo                 00000000004021D0 _setuid                        address sequence                                      1     1     1      1      1      1     0     0     0
1.00 0.62 ------- 0000000000402510 ___sigsetjmp                 0000000000401C40 ___ctype_toupper_loc           address sequence                                      1     1     1      1      1      1     0     0     0
1.00 0.62 ------- 0000000000402530 _sigaddset                   00000000004021E0 _getaddrinfo                   address sequence                                      1     1     1      1      1      1     0     0     0
1.00 0.62 ------- 0000000000402540 _fork                        0000000000401D80 _inet_ntoa                     address sequence                                      1     1     1      1      1      1     0     0     0
1.00 0.62 ------- 0000000000402560 ___ctype_tolower_loc         0000000000401FE0 _inet_aton                     address sequence                                      1     1     1      1      1      1     0     0     0
1.00 0.62 ------- 0000000000402570 ___ctype_b_loc               0000000000402250 ___ctype_tolower_loc           address sequence                                      1     1     1      1      1      1     0     0     0
1.00 0.62 ------- 0000000000402580 _freeaddrinfo                0000000000402200 ___sigsetjmp                   address sequence                                      1     1     1      1      1      1     0     0     0
1.00 0.62 ------- 0000000000402590 ___sprintf_chk               0000000000402220 _sigaddset                     address sequence                                      1     1     1      1      1      1     0     0     0
1.00 0.62 ------- 00000000004025A0 _socket                      0000000000402230 _fork                          address sequence                                      1     1     1      1      1      1     0     0     0
0.99 0.99 -I--E-- 0000000000409D40 max_input_read               0000000000408F10 max_input_read                 MD index matching (flowgraph MD index, top down)      9     9     9     37     38     38    10    10    10
0.98 0.99 -I--E-- 0000000000402E60 fdprintf                     0000000000402B50 fdprintf                       MD index matching (flowgraph MD index, top down)     13    13    13     76     81     77    16    16    16
0.97 0.98 -I----- 000000000040AB40 invariant_2                  0000000000409ED0 invariant_2                    call reference matching                              22    22    22     66     72     70    34    34    34
0.97 0.98 -I--E-- 000000000040A310 telnet_session_init          0000000000409760 telnet_session_init            edges callgraph MD index                             10    10    10     74     88     89     9     9     9
0.96 0.97 -I-JE-- 0000000000408E70 ftp_session_init             0000000000408760 ftp_session_init               edges callgraph MD index                             19    19    19    121    145    140    18    18    18
0.94 0.97 -I-JE-C 0000000000404F60 ftp_listener_init            0000000000404BF0 ftp_listener_init              string references                                    46    46    46    284    330    308    54    58    58
0.94 0.98 GI--E-- 000000000040AE50 watchdog_init                000000000040A260 watchdog_init                  edges callgraph MD index                             11    11    11     58     72     67    10    10    11
0.94 0.95 -I--E-- 00000000004059B0 netscape_hack                00000000004072C0 netscape_hack                  MD index matching (flowgraph MD index, top down)      5     5     5     42     49     49     5     5     5
0.93 0.98 GI-JE-C 0000000000403DF0 ftp_command_parse            0000000000403A80 ftp_command_parse              string references                                    17    18    17     80     87     86    16    19    18
0.90 0.96 -I--E-- 000000000040B1E0 error_init                   000000000040A5C0 error_init                     edges flowgraph MD index                             11    11    11     61     69     67     9    11    11
0.90 0.99 GI--ELC 0000000000407B10 send_readme                  00000000004055C0 send_readme                    string references                                    27    27    33    134    150    193    32    33    44
0.90 0.99 GI----- 0000000000405C90 reply                        0000000000405930 reply                          call reference matching                              11    11    15     79     84     97    11    11    15
0.90 0.98 GI-J--C 0000000000407E20 change_dir                   0000000000406BE0 change_dir                     loop count matching                                  59    63    66    237    256    278    71    85    92
0.89 0.98 GI-JE-- 0000000000405BF0 invariant_0                  0000000000405510 invariant_0                    call reference matching                              14    15    14     37     50     48    19    25    24
0.84 0.98 GI----C 0000000000406CA0 set_port                     00000000004066A0 set_port                       call sequence matching(exact)                        13    13    17     61     62    111    13    13    21
0.84 0.98 GI----- 0000000000405770 ip_equal                     0000000000405320 ip_equal                       call reference matching                              11    11    13     47     53     53     8    11    15
0.83 0.96 GI---LC 0000000000404B60 connection_acceptor          0000000000404810 connection_acceptor            edges callgraph MD index                             24    26    28    182    218    235    24    31    36
0.83 0.86 -I--E-C 000000000040B470 __libc_csu_init              000000000040A7F0 __libc_csu_init                address sequence                                      4     4     4     19     34     34     5     5     5
0.79 0.91 GI--E-- 0000000000404AF0 invariant                    0000000000404790 invariant                      call reference matching                               9    10     9     28     40     35    10    15    15
0.78 0.88 GI-JELC 00000000004025B0 main                         0000000000402290 main                           call sequence matching(sequence)                     86    90   107    308    376    457   119   127   157
0.78 0.96 G------ 0000000000409CC0 invariant_1                  0000000000408EA0 invariant_1                    call reference matching                              10    12    11     22     27     26     9    18    19
0.77 0.96 GI--ELC 000000000040A440 telnet_session_print         00000000004098C0 telnet_session_print           call reference matching                              20    25    25     77    120    113    17    31    34
0.72 0.93 GI--E-C 0000000000408640 do_retr                      0000000000406940 do_port                        call sequence matching(sequence)                      7     7    12     27     38     84     5     6    11
0.69 0.80 GI--E-- 0000000000407830 do_pasv                      0000000000406830 do_lprt                        call sequence matching(sequence)                      9     9    12     31     39     84     8     8    12
0.67 0.96 GI--E-- 0000000000407030 do_list                      0000000000405E30 do_mode                        call sequence matching(sequence)                      7    12    13     28     45     83     4    12    13
0.65 0.90 -I--E-- 000000000040B400 daemon_assert_fail           000000000040A790 daemon_assert_fail             call reference matching                               1     1     1     25     29     27     0     0     0
0.62 0.92 -I--E-- 000000000040AAA0 insert                       0000000000401D90 _pthread_cond_wait             MD index matching (callGraph MD index, top down)      1     1     1      1      6      1     0     0     0
0.62 0.86 GI--E-- 0000000000409200 ftp_session_run              00000000004070A0 do_pass                        call sequence matching(sequence)                      5     5    10     25     37     81     3     4     9
0.61 0.90 GI----- 00000000004074F0 do_epsv                      0000000000406030 do_type                        call sequence matching(sequence)                     11    13    23     40     50    109     8    13    29
0.59 0.91 GI--E-- 00000000004071F0 do_nlst                      0000000000405F20 do_stru                        call sequence matching(sequence)                      7    12    16     28     45     89     3    12    17
0.57 0.89 GI--E-- 0000000000407670 do_lpsv                      0000000000406370 do_epsv                        call sequence matching(sequence)                      8     9    20     33     42    116     6     8    25
0.56 0.93 GI--ELC 000000000040A040 process_data                 0000000000409150 process_data                   call reference matching                              17    20    50     82    176    258    13    28    68
0.53 0.92 GI--E-- 0000000000407810 sub_407810_10                00000000004064F0 do_lpsv                        call sequence matching(sequence)                      5     5    17     19     23     90     3     4    19
0.49 0.98 G---E-- 0000000000402260 ___gmon_start__              000000000060F890 __gmon_start__                 MD index matching (flowgraph MD index, top down)      0     1     0      0      1      0     0     0     0
0.46 0.68 GI--E-- 0000000000408AF0 do_mdtm                      0000000000406A50 do_pasv                        call sequence matching(sequence)                      7     7    16     25     34    119     6     6    19
0.45 0.83 GI--E-- 00000000004079B0 sub_4079B0_11                0000000000405D00 do_rest                        call sequence matching(sequence)                      4     4    15     41     50     99     1     3    17
0.41 0.62 -I--E-- 000000000040A680 telnet_session_println       0000000000401C18 _init_proc                     address sequence                                      1     1     1      1      6      6     0     0     0
0.41 0.62 -I--E-- 000000000040B0D0 watchdog_remove_watched      00000000004054D0 init_passive_port              address sequence                                      1     1     1      1      5     15     0     0     0
0.40 0.62 -I--E-- 0000000000405EAE sub_405EAE_8                 0000000000402260 ___ctype_b_loc                 address sequence                                      1     1     1      0      1      1     0     0     0
0.40 0.62 -I--E-- 00000000004082E8 sub_4082E8_12                0000000000402270 _freeaddrinfo                  address sequence                                      1     1     1      0      1      1     0     0     0
0.40 0.62 -I--E-- 0000000000408C6E sub_408C6E_13                0000000000402280 _socket                        address sequence                                      1     1     1      0      1      1     0     0     0
0.40 0.62 -I--E-- 0000000000409600 daemonize                    000000000040A8C8 _term_proc                     instruction count                                     1     1     1      0      4      4     0     0     0
0.40 0.62 GI--E-C 00000000004073B0 set_pasv                     0000000000405B40 open_connection                call sequence matching(sequence)                      7     7    16     22     39    103     5     6    20
0.26 0.43 GI--E-C 000000000040ADA0 watcher                      00000000004061C0 set_pasv                       loop count matching                                   6     6    14     18     38    102     3     7    17
0.21 0.44 GI--E-- 0000000000402340 _malloc                      000000000040A760 error_get_desc                 call reference matching                               1     1     3      0      1     13     0     0     2
0.20 0.44 GI--E-- 000000000040B180 invariant_3                  000000000040A590 invariant_3                    call reference matching                               1     1     4      0      1     14     0     0     5
0.19 0.44 GI--E-- 000000000040B3B0 error_get_desc               0000000000409E70 telnet_session_destroy         call reference matching                               1     1     5      2      3     20     0     0     5
0.19 0.50 GI--EL- 00000000004047EB sub_4047EB_7                 0000000000402FD0 file_list                      call sequence matching(sequence)                      9    10    93      8     43    498     7    13   132
0.18 0.28 GI-JE-- 000000000040A7C0 telnet_session_readln        0000000000402CD0 file_nlst                      call sequence matching(sequence)                     15    21    36     36     90    182    12    25    49
0.13 0.38 G---EL- 00000000004047CD sub_4047CD_6                 0000000000405410 filespec_is_legal              call sequence matching(sequence)                      1     1    16      5      5     43     0     0    22
0.07 0.12 GI--E-C 000000000040AF80 watchdog_add_watched         00000000004052A0 ftp_listener_stop              call sequence matching(sequence)                      3     3     7     11     21     36     1     2     8
0.03 0.08 G---E-- 0000000000401F50 _pthread_sigmask             0000000000408E30 print_usage                    call sequence matching(sequence)                      1     1     4      1      1     22     0     0     4
0.02 0.04 GI--EL- 0000000000403120 file_nlst                    0000000000403890 copy_string                    call sequence matching(sequence)                      3     3    10     11     22     43     2     2    11
0.02 0.04 GI--EL- 00000000004033F0 file_list                    0000000000403930 parse_number                   call sequence matching(sequence)                      3     3    16     14     23     81     2     2    18
0.01 0.02 GI--E-- 0000000000407660 sub_407660_9                 0000000000404500 connection_handler_cleanup     call sequence matching(sequence)                      2     4     2      6     50     37     1     3     1
0.01 0.03 GI--E-- 00000000004097F0 add_outgoing_char            0000000000408FB0 add_outgoing_char              call sequence matching(exact)                         1     1     7      5      6     45     0     0     6
0.01 0.03 GI--E-- 0000000000404910 connection_handler           00000000004045B0 connection_handler             call sequence matching(exact)                         1     1     8     21     26    106     0     0     8